{
  "abi": [
    {
      "constant": false,
      "inputs": [
        {
          "name": "new_address",
          "type": "address"
        }
      ],
      "name": "upgrade",
      "outputs": [],
      "payable": false,
      "stateMutability": "nonpayable",
      "type": "function"
    },
    {
      "constant": true,
      "inputs": [],
      "name": "last_completed_migration",
      "outputs": [
        {
          "name": "",
          "type": "uint256"
        }
      ],
      "payable": false,
      "stateMutability": "view",
      "type": "function"
    },
    {
      "constant": false,
      "inputs": [
        {
          "name": "completed",
          "type": "uint256"
        }
      ],
      "name": "setCompleted",
      "outputs": [],
      "payable": false,
      "stateMutability": "nonpayable",
      "type": "function"
    }
  ],
  "bytecode": {
    "object": "0x608060405234801561001057600080fd5b50610171806100206000396000f30060806040526004361061003a5760003560e01c63ffffffff1680630900f0101461003f578063445df0ac1461006f578063fdacd57614610096575b600080fd5b34801561004b57600080fd5b5061006d73ffffffffffffffffffffffffffffffffffffffff600435166100ae565b005b34801561007b57600080fd5b5061008461013a565b60408051918252519081900360200190f35b3480156100a257600080fd5b5061006d600435610140565b60008054604080517ffdacd576000000000000000000000000000000000000000000000000000000008152600481019290925251839273ffffffffffffffffffffffffffffffffffffffff84169263fdacd576926024808301939282900301818387803b15801561011e57600080fd5b505af1158015610132573d6000803e3d6000fd5b505050505050565b60005481565b6000555600a165627a7a72305820150d491554559b3493a273304885943398b2b13cdba04bf348b5a9a07c28e0aa0029",
    "linkReferences": {}
  },
  "methodIdentifiers": {
    "last_completed_migration()": "445df0ac",
    "setCompleted(uint256)": "fdacd576",
    "upgrade(address)": "0900f010"
  },
  "id": 0
}