{
  "abi": [
    {
      "constant": true,
      "inputs": [
        {
          "name": "a",
          "type": "uint256"
        },
        {
          "name": "b",
          "type": "uint256"
        }
      ],
      "name": "add",
      "outputs": [
        {
          "name": "",
          "type": "uint256"
        }
      ],
      "payable": false,
      "stateMutability": "pure",
      "type": "function"
    },
    {
      "constant": true,
      "inputs": [
        {
          "name": "a",
          "type": "uint256"
        },
        {
          "name": "b",
          "type": "uint256"
        }
      ],
      "name": "sub",
      "outputs": [
        {
          "name": "",
          "type": "uint256"
        }
      ],
      "payable": false,
      "stateMutability": "pure",
      "type": "function"
    }
  ],
  "bytecode": {
    "object": "0x608060405234801561001057600080fd5b5060e18061001f6000396000f300608060405260043610602c5760003560e01c63ffffffff168063771602f7146031578063b67d77c514605b575b600080fd5b348015603c57600080fd5b5060496004356024356073565b60408051918252519081900360200190f35b348015606657600080fd5b5060496004356024356084565b6000607d8383608e565b9392505050565b6000607d8383609f565b600082820183811015607d57600080fd5b6000808383111560ae57600080fd5b50509003905600a165627a7a72305820b37bafcfcc2163ed63800ce116d9a4546066b410ebb6885abcd41e73f312aeed0029",
    "linkReferences": {}
  },
  "methodIdentifiers": {
    "add(uint256,uint256)": "771602f7",
    "sub(uint256,uint256)": "b67d77c5"
  },
  "id": 3
}