{
  "abi": [
    {
      "constant": false,
      "inputs": [],
      "name": "disregardProposeOwner",
      "outputs": [],
      "payable": false,
      "stateMutability": "nonpayable",
      "type": "function"
    },
    {
      "constant": true,
      "inputs": [],
      "name": "name",
      "outputs": [
        {
          "name": "",
          "type": "string"
        }
      ],
      "payable": false,
      "stateMutability": "view",
      "type": "function"
    },
    {
      "constant": false,
      "inputs": [
        {
          "name": "_spender",
          "type": "address"
        },
        {
          "name": "_value",
          "type": "uint256"
        }
      ],
      "name": "approve",
      "outputs": [
        {
          "name": "",
          "type": "bool"
        }
      ],
      "payable": false,
      "stateMutability": "nonpayable",
      "type": "function"
    },
    {
      "constant": true,
      "inputs": [],
      "name": "assetProtectionRole",
      "outputs": [
        {
          "name": "",
          "type": "address"
        }
      ],
      "payable": false,
      "stateMutability": "view",
      "type": "function"
    },
    {
      "constant": true,
      "inputs": [],
      "name": "totalSupply",
      "outputs": [
        {
          "name": "",
          "type": "uint256"
        }
      ],
      "payable": false,
      "stateMutability": "view",
      "type": "function"
    },
    {
      "constant": false,
      "inputs": [
        {
          "name": "r",
          "type": "bytes32[]"
        },
        {
          "name": "s",
          "type": "bytes32[]"
        },
        {
          "name": "v",
          "type": "uint8[]"
        },
        {
          "name": "to",
          "type": "address[]"
        },
        {
          "name": "value",
          "type": "uint256[]"
        },
        {
          "name": "fee",
          "type": "uint256[]"
        },
        {
          "name": "seq",
          "type": "uint256[]"
        },
        {
          "name": "deadline",
          "type": "uint256[]"
        }
      ],
      "name": "betaDelegatedTransferBatch",
      "outputs": [
        {
          "name": "",
          "type": "bool"
        }
      ],
      "payable": false,
      "stateMutability": "nonpayable",
      "type": "function"
    },
    {
      "constant": false,
      "inputs": [
        {
          "name": "sig",
          "type": "bytes"
        },
        {
          "name": "to",
          "type": "address"
        },
        {
          "name": "value",
          "type": "uint256"
        },
        {
          "name": "fee",
          "type": "uint256"
        },
        {
          "name": "seq",
          "type": "uint256"
        },
        {
          "name": "deadline",
          "type": "uint256"
        }
      ],
      "name": "betaDelegatedTransfer",
      "outputs": [
        {
          "name": "",
          "type": "bool"
        }
      ],
      "payable": false,
      "stateMutability": "nonpayable",
      "type": "function"
    },
    {
      "constant": false,
      "inputs": [
        {
          "name": "_from",
          "type": "address"
        },
        {
          "name": "_to",
          "type": "address"
        },
        {
          "name": "_value",
          "type": "uint256"
        }
      ],
      "name": "transferFrom",
      "outputs": [
        {
          "name": "",
          "type": "bool"
        }
      ],
      "payable": false,
      "stateMutability": "nonpayable",
      "type": "function"
    },
    {
      "constant": true,
      "inputs": [],
      "name": "decimals",
      "outputs": [
        {
          "name": "",
          "type": "uint8"
        }
      ],
      "payable": false,
      "stateMutability": "view",
      "type": "function"
    },
    {
      "constant": false,
      "inputs": [],
      "name": "unpause",
      "outputs": [],
      "payable": false,
      "stateMutability": "nonpayable",
      "type": "function"
    },
    {
      "constant": false,
      "inputs": [
        {
          "name": "_addr",
          "type": "address"
        }
      ],
      "name": "unfreeze",
      "outputs": [],
      "payable": false,
      "stateMutability": "nonpayable",
      "type": "function"
    },
    {
      "constant": false,
      "inputs": [
        {
          "name": "initialAccount",
          "type": "address"
        },
        {
          "name": "initialBalance",
          "type": "uint256"
        }
      ],
      "name": "initializeBalance",
      "outputs": [],
      "payable": false,
      "stateMutability": "nonpayable",
      "type": "function"
    },
    {
      "constant": false,
      "inputs": [],
      "name": "claimOwnership",
      "outputs": [],
      "payable": false,
      "stateMutability": "nonpayable",
      "type": "function"
    },
    {
      "constant": false,
      "inputs": [
        {
          "name": "_newSupplyController",
          "type": "address"
        }
      ],
      "name": "setSupplyController",
      "outputs": [],
      "payable": false,
      "stateMutability": "nonpayable",
      "type": "function"
    },
    {
      "constant": true,
      "inputs": [],
      "name": "paused",
      "outputs": [
        {
          "name": "",
          "type": "bool"
        }
      ],
      "payable": false,
      "stateMutability": "view",
      "type": "function"
    },
    {
      "constant": false,
      "inputs": [
        {
          "name": "_spender",
          "type": "address"
        },
        {
          "name": "_subtractedValue",
          "type": "uint256"
        }
      ],
      "name": "decreaseApproval",
      "outputs": [
        {
          "name": "",
          "type": "bool"
        }
      ],
      "payable": false,
      "stateMutability": "nonpayable",
      "type": "function"
    },
    {
      "constant": true,
      "inputs": [
        {
          "name": "_addr",
          "type": "address"
        }
      ],
      "name": "balanceOf",
      "outputs": [
        {
          "name": "",
          "type": "uint256"
        }
      ],
      "payable": false,
      "stateMutability": "view",
      "type": "function"
    },
    {
      "constant": false,
      "inputs": [],
      "name": "initialize",
      "outputs": [],
      "payable": false,
      "stateMutability": "nonpayable",
      "type": "function"
    },
    {
      "constant": false,
      "inputs": [],
      "name": "pause",
      "outputs": [],
      "payable": false,
      "stateMutability": "nonpayable",
      "type": "function"
    },
    {
      "constant": true,
      "inputs": [
        {
          "name": "target",
          "type": "address"
        }
      ],
      "name": "nextSeqOf",
      "outputs": [
        {
          "name": "",
          "type": "uint256"
        }
      ],
      "payable": false,
      "stateMutability": "view",
      "type": "function"
    },
    {
      "constant": false,
      "inputs": [
        {
          "name": "_newAssetProtectionRole",
          "type": "address"
        }
      ],
      "name": "setAssetProtectionRole",
      "outputs": [],
      "payable": false,
      "stateMutability": "nonpayable",
      "type": "function"
    },
    {
      "constant": false,
      "inputs": [
        {
          "name": "_addr",
          "type": "address"
        }
      ],
      "name": "freeze",
      "outputs": [],
      "payable": false,
      "stateMutability": "nonpayable",
      "type": "function"
    },
    {
      "constant": true,
      "inputs": [],
      "name": "owner",
      "outputs": [
        {
          "name": "",
          "type": "address"
        }
      ],
      "payable": false,
      "stateMutability": "view",
      "type": "function"
    },
    {
      "constant": true,
      "inputs": [],
      "name": "symbol",
      "outputs": [
        {
          "name": "",
          "type": "string"
        }
      ],
      "payable": false,
      "stateMutability": "view",
      "type": "function"
    },
    {
      "constant": false,
      "inputs": [
        {
          "name": "_newWhitelister",
          "type": "address"
        }
      ],
      "name": "setBetaDelegateWhitelister",
      "outputs": [],
      "payable": false,
      "stateMutability": "nonpayable",
      "type": "function"
    },
    {
      "constant": false,
      "inputs": [
        {
          "name": "_value",
          "type": "uint256"
        }
      ],
      "name": "decreaseSupply",
      "outputs": [
        {
          "name": "success",
          "type": "bool"
        }
      ],
      "payable": false,
      "stateMutability": "nonpayable",
      "type": "function"
    },
    {
      "constant": true,
      "inputs": [
        {
          "name": "_addr",
          "type": "address"
        }
      ],
      "name": "isWhitelistedBetaDelegate",
      "outputs": [
        {
          "name": "",
          "type": "bool"
        }
      ],
      "payable": false,
      "stateMutability": "view",
      "type": "function"
    },
    {
      "constant": false,
      "inputs": [
        {
          "name": "_to",
          "type": "address"
        },
        {
          "name": "_value",
          "type": "uint256"
        }
      ],
      "name": "transfer",
      "outputs": [
        {
          "name": "",
          "type": "bool"
        }
      ],
      "payable": false,
      "stateMutability": "nonpayable",
      "type": "function"
    },
    {
      "constant": false,
      "inputs": [
        {
          "name": "_addr",
          "type": "address"
        }
      ],
      "name": "whitelistBetaDelegate",
      "outputs": [],
      "payable": false,
      "stateMutability": "nonpayable",
      "type": "function"
    },
    {
      "constant": false,
      "inputs": [],
      "name": "reclaimPYUSD",
      "outputs": [],
      "payable": false,
      "stateMutability": "nonpayable",
      "type": "function"
    },
    {
      "constant": false,
      "inputs": [
        {
          "name": "_proposedOwner",
          "type": "address"
        }
      ],
      "name": "proposeOwner",
      "outputs": [],
      "payable": false,
      "stateMutability": "nonpayable",
      "type": "function"
    },
    {
      "constant": false,
      "inputs": [
        {
          "name": "_value",
          "type": "uint256"
        }
      ],
      "name": "increaseSupply",
      "outputs": [
        {
          "name": "success",
          "type": "bool"
        }
      ],
      "payable": false,
      "stateMutability": "nonpayable",
      "type": "function"
    },
    {
      "constant": true,
      "inputs": [],
      "name": "betaDelegateWhitelister",
      "outputs": [
        {
          "name": "",
          "type": "address"
        }
      ],
      "payable": false,
      "stateMutability": "view",
      "type": "function"
    },
    {
      "constant": true,
      "inputs": [],
      "name": "proposedOwner",
      "outputs": [
        {
          "name": "",
          "type": "address"
        }
      ],
      "payable": false,
      "stateMutability": "view",
      "type": "function"
    },
    {
      "constant": false,
      "inputs": [
        {
          "name": "_spender",
          "type": "address"
        },
        {
          "name": "_addedValue",
          "type": "uint256"
        }
      ],
      "name": "increaseApproval",
      "outputs": [
        {
          "name": "",
          "type": "bool"
        }
      ],
      "payable": false,
      "stateMutability": "nonpayable",
      "type": "function"
    },
    {
      "constant": false,
      "inputs": [
        {
          "name": "_addr",
          "type": "address"
        }
      ],
      "name": "unwhitelistBetaDelegate",
      "outputs": [],
      "payable": false,
      "stateMutability": "nonpayable",
      "type": "function"
    },
    {
      "constant": true,
      "inputs": [
        {
          "name": "_owner",
          "type": "address"
        },
        {
          "name": "_spender",
          "type": "address"
        }
      ],
      "name": "allowance",
      "outputs": [
        {
          "name": "",
          "type": "uint256"
        }
      ],
      "payable": false,
      "stateMutability": "view",
      "type": "function"
    },
    {
      "constant": false,
      "inputs": [
        {
          "name": "_addr",
          "type": "address"
        }
      ],
      "name": "wipeFrozenAddress",
      "outputs": [],
      "payable": false,
      "stateMutability": "nonpayable",
      "type": "function"
    },
    {
      "constant": true,
      "inputs": [],
      "name": "EIP712_DOMAIN_HASH",
      "outputs": [
        {
          "name": "",
          "type": "bytes32"
        }
      ],
      "payable": false,
      "stateMutability": "view",
      "type": "function"
    },
    {
      "constant": true,
      "inputs": [
        {
          "name": "_addr",
          "type": "address"
        }
      ],
      "name": "isFrozen",
      "outputs": [
        {
          "name": "",
          "type": "bool"
        }
      ],
      "payable": false,
      "stateMutability": "view",
      "type": "function"
    },
    {
      "constant": true,
      "inputs": [],
      "name": "supplyController",
      "outputs": [
        {
          "name": "",
          "type": "address"
        }
      ],
      "payable": false,
      "stateMutability": "view",
      "type": "function"
    },
    {
      "anonymous": false,
      "inputs": [
        {
          "indexed": true,
          "name": "from",
          "type": "address"
        },
        {
          "indexed": true,
          "name": "to",
          "type": "address"
        },
        {
          "indexed": false,
          "name": "value",
          "type": "uint256"
        }
      ],
      "name": "Transfer",
      "type": "event"
    },
    {
      "anonymous": false,
      "inputs": [
        {
          "indexed": true,
          "name": "owner",
          "type": "address"
        },
        {
          "indexed": true,
          "name": "spender",
          "type": "address"
        },
        {
          "indexed": false,
          "name": "value",
          "type": "uint256"
        }
      ],
      "name": "Approval",
      "type": "event"
    },
    {
      "anonymous": false,
      "inputs": [
        {
          "indexed": true,
          "name": "currentOwner",
          "type": "address"
        },
        {
          "indexed": true,
          "name": "proposedOwner",
          "type": "address"
        }
      ],
      "name": "OwnershipTransferProposed",
      "type": "event"
    },
    {
      "anonymous": false,
      "inputs": [
        {
          "indexed": true,
          "name": "oldProposedOwner",
          "type": "address"
        }
      ],
      "name": "OwnershipTransferDisregarded",
      "type": "event"
    },
    {
      "anonymous": false,
      "inputs": [
        {
          "indexed": true,
          "name": "oldOwner",
          "type": "address"
        },
        {
          "indexed": true,
          "name": "newOwner",
          "type": "address"
        }
      ],
      "name": "OwnershipTransferred",
      "type": "event"
    },
    {
      "anonymous": false,
      "inputs": [],
      "name": "Pause",
      "type": "event"
    },
    {
      "anonymous": false,
      "inputs": [],
      "name": "Unpause",
      "type": "event"
    },
    {
      "anonymous": false,
      "inputs": [
        {
          "indexed": true,
          "name": "addr",
          "type": "address"
        }
      ],
      "name": "AddressFrozen",
      "type": "event"
    },
    {
      "anonymous": false,
      "inputs": [
        {
          "indexed": true,
          "name": "addr",
          "type": "address"
        }
      ],
      "name": "AddressUnfrozen",
      "type": "event"
    },
    {
      "anonymous": false,
      "inputs": [
        {
          "indexed": true,
          "name": "addr",
          "type": "address"
        }
      ],
      "name": "FrozenAddressWiped",
      "type": "event"
    },
    {
      "anonymous": false,
      "inputs": [
        {
          "indexed": true,
          "name": "oldAssetProtectionRole",
          "type": "address"
        },
        {
          "indexed": true,
          "name": "newAssetProtectionRole",
          "type": "address"
        }
      ],
      "name": "AssetProtectionRoleSet",
      "type": "event"
    },
    {
      "anonymous": false,
      "inputs": [
        {
          "indexed": true,
          "name": "to",
          "type": "address"
        },
        {
          "indexed": false,
          "name": "value",
          "type": "uint256"
        }
      ],
      "name": "SupplyIncreased",
      "type": "event"
    },
    {
      "anonymous": false,
      "inputs": [
        {
          "indexed": true,
          "name": "from",
          "type": "address"
        },
        {
          "indexed": false,
          "name": "value",
          "type": "uint256"
        }
      ],
      "name": "SupplyDecreased",
      "type": "event"
    },
    {
      "anonymous": false,
      "inputs": [
        {
          "indexed": true,
          "name": "oldSupplyController",
          "type": "address"
        },
        {
          "indexed": true,
          "name": "newSupplyController",
          "type": "address"
        }
      ],
      "name": "SupplyControllerSet",
      "type": "event"
    },
    {
      "anonymous": false,
      "inputs": [
        {
          "indexed": true,
          "name": "from",
          "type": "address"
        },
        {
          "indexed": true,
          "name": "to",
          "type": "address"
        },
        {
          "indexed": false,
          "name": "value",
          "type": "uint256"
        },
        {
          "indexed": false,
          "name": "seq",
          "type": "uint256"
        },
        {
          "indexed": false,
          "name": "fee",
          "type": "uint256"
        }
      ],
      "name": "BetaDelegatedTransfer",
      "type": "event"
    },
    {
      "anonymous": false,
      "inputs": [
        {
          "indexed": true,
          "name": "oldWhitelister",
          "type": "address"
        },
        {
          "indexed": true,
          "name": "newWhitelister",
          "type": "address"
        }
      ],
      "name": "BetaDelegateWhitelisterSet",
      "type": "event"
    },
    {
      "anonymous": false,
      "inputs": [
        {
          "indexed": true,
          "name": "newDelegate",
          "type": "address"
        }
      ],
      "name": "BetaDelegateWhitelisted",
      "type": "event"
    },
    {
      "anonymous": false,
      "inputs": [
        {
          "indexed": true,
          "name": "oldDelegate",
          "type": "address"
        }
      ],
      "name": "BetaDelegateUnwhitelisted",
      "type": "event"
    }
  ],
  "bytecode": {
    "object": "0x6080604052620000146200002a60201b60201c565b620000246200015e60201b60201c565b6200042a565b60005460ff16156200010f57604080517f08c379a000000000000000000000000000000000000000000000000000000000815260206004820152607a60248201527f4d414e4441544f525920564552494649434154494f4e2052455155495245443a60448201527f205468652070726f78792068617320616c7265616479206265656e20696e697460648201527f69616c697a65642c2076657269667920746865206f776e657220616e6420737560848201527f70706c7920636f6e74726f6c6c6572206164647265737365732e00000000000060a482015290519081900360c40190fd5b6004805433600160a060020a03199182168117909255600580548216905560006002556007805490911690911790556200014f620002b5602090811b901c565b6000805460ff19166001179055565b600454600160a060020a03163314620001d857604080517f08c379a000000000000000000000000000000000000000000000000000000000815260206004820152600960248201527f6f6e6c794f776e65720000000000000000000000000000000000000000000000604482015290519081900360640190fd5b60045474010000000000000000000000000000000000000000900460ff16156200026357604080517f08c379a000000000000000000000000000000000000000000000000000000000815260206004820152600e60248201527f616c726561647920706175736564000000000000000000000000000000000000604482015290519081900360640190fd5b6004805460a060020a60ff021916740100000000000000000000000000000000000000001790556040517f6985a02210a168e66602d3235cb6db0e70f92b3ba4d376a33c0f3d9434bff62590600090a1565b604080517f454950373132446f6d61696e28737472696e67206e616d652c6164647265737381527f20766572696679696e67436f6e7472616374290000000000000000000000000060208083019190915282519182900360330182208284018452600a8084527f50617950616c205553440000000000000000000000000000000000000000000092840192835293519093909182918083835b602083106200036f5780518252601f1990920191602091820191016200034e565b51815160209384036101000a60001901801990921691161790526040805192909401829003822082820197909752818401969096523060001b60608083019190915283518083039091018152608090910192839052805190959294508493509185019190508083835b60208310620003f95780518252601f199092019160209182019101620003d8565b5181516020939093036101000a60001901801990911692169190911790526040519201829003909120600c55505050565b613883806200043a6000396000f3006080604052600436106101dc5760003560e01c63ffffffff16806303acb448146101e157806306fdde03146101f8578063095ea7b3146102825780630a91b601146102ba57806318160ddd146102eb5780631b6705611461031257806321ab11f7146104f657806323b872dd1461056f578063313ce567146105995780633f4ba83a146105c457806345c8b1a6146105d957806348facd4c146105fa5780634e71e0c81461061e57806352875bc3146106335780635c975abb14610654578063661884631461066957806370a082311461068d5780638129fc1c146106ae5780638456cb59146106c357806389f72c21146106d85780638ceed9cb146106f95780638d1fdf2f1461071a5780638da5cb5b1461073b57806395d89b411461075057806397d60d561461076557806398e52f9a14610786578063a7d87ed01461079e578063a9059cbb146107bf578063ac69275c146107e3578063b35ae5be14610804578063b5ed298a14610819578063b921e1631461083a578063c4f62fee14610852578063d153b60c14610867578063d73dd6231461087c578063d990c618146108a0578063dd62ed3e146108c1578063e2f72f03146108e8578063e306f77914610909578063e58398361461091e578063e7ba10121461093f575b600080fd5b3480156101ed57600080fd5b506101f6610954565b005b34801561020457600080fd5b5061020d610aa5565b6040805160208082528351818301528351919283929083019185019080838360005b8381101561024757818101518382015260200161022f565b50505050905090810190601f1680156102745780820380516001836020036101000a031916815260200191505b509250505060405180910390f35b34801561028e57600080fd5b506102a6600160a060020a0360043516602435610adc565b604080519115158252519081900360200190f35b3480156102c657600080fd5b506102cf610c13565b60408051600160a060020a039092168252519081900360200190f35b3480156102f757600080fd5b50610300610c22565b60408051918252519081900360200190f35b34801561031e57600080fd5b50604080516020600480358082013583810280860185019096528085526102a695369593946024949385019291829185019084908082843750506040805187358901803560208181028481018201909552818452989b9a998901989297509082019550935083925085019084908082843750506040805187358901803560208181028481018201909552818452989b9a998901989297509082019550935083925085019084908082843750506040805187358901803560208181028481018201909552818452989b9a998901989297509082019550935083925085019084908082843750506040805187358901803560208181028481018201909552818452989b9a998901989297509082019550935083925085019084908082843750506040805187358901803560208181028481018201909552818452989b9a998901989297509082019550935083925085019084908082843750506040805187358901803560208181028481018201909552818452989b9a998901989297509082019550935083925085019084908082843750506040805187358901803560208181028481018201909552818452989b9a998901989297509082019550935083925085019084908082843750949750610c289650505050505050565b34801561050257600080fd5b506040805160206004803580820135601f81018490048402850184019095528484526102a694369492936024939284019190819084018382808284375094975050600160a060020a0385351695505050602083013592604081013592506060810135915060800135610e10565b34801561057b57600080fd5b506102a6600160a060020a0360043581169060243516604435610ea7565b3480156105a557600080fd5b506105ae6111e2565b6040805160ff9092168252519081900360200190f35b3480156105d057600080fd5b506101f66111e7565b3480156105e557600080fd5b506101f6600160a060020a03600435166112e3565b34801561060657600080fd5b506101f6600160a060020a0360043516602435611400565b34801561062a57600080fd5b506101f6611421565b34801561063f57600080fd5b506101f6600160a060020a03600435166114e7565b34801561066057600080fd5b506102a66116cd565b34801561067557600080fd5b506102a6600160a060020a03600435166024356116dd565b34801561069957600080fd5b50610300600160a060020a03600435166118a0565b3480156106ba57600080fd5b506101f66118bb565b3480156106cf57600080fd5b506101f66119ce565b3480156106e457600080fd5b50610300600160a060020a0360043516611acf565b34801561070557600080fd5b506101f6600160a060020a0360043516611aea565b34801561072657600080fd5b506101f6600160a060020a0360043516611c70565b34801561074757600080fd5b506102cf611d8f565b34801561075c57600080fd5b5061020d611d9e565b34801561077157600080fd5b506101f6600160a060020a0360043516611dd5565b34801561079257600080fd5b506102a6600435611f29565b3480156107aa57600080fd5b506102a6600160a060020a03600435166120d8565b3480156107cb57600080fd5b506102a6600160a060020a03600435166024356120f6565b3480156107ef57600080fd5b506101f6600160a060020a036004351661232b565b34801561081057600080fd5b506101f661244a565b34801561082557600080fd5b506101f6600160a060020a0360043516612524565b34801561084657600080fd5b506102a66004356126b2565b34801561085e57600080fd5b506102cf6127ed565b34801561087357600080fd5b506102cf6127fc565b34801561088857600080fd5b506102a6600160a060020a036004351660243561280b565b3480156108ac57600080fd5b506101f6600160a060020a0360043516612974565b3480156108cd57600080fd5b50610300600160a060020a0360043581169060243516612a91565b3480156108f457600080fd5b506101f6600160a060020a0360043516612abc565b34801561091557600080fd5b50610300612c6d565b34801561092a57600080fd5b506102a6600160a060020a0360043516612c73565b34801561094b57600080fd5b506102cf612c91565b600854600090600160a060020a031633148061097a5750600454600160a060020a031633145b15156109d0576040805160e560020a62461bcd02815260206004820152601b60248201527f6f6e6c792070726f706f7365644f776e6572206f72206f776e65720000000000604482015290519081900360640190fd5b600854600160a060020a03161515610a58576040805160e560020a62461bcd02815260206004820152603b60248201527f63616e206f6e6c792064697372656761726420612070726f706f736564206f7760448201527f6e65722074686174207761732070726576696f75736c79207365740000000000606482015290519081900360840190fd5b5060088054600160a060020a03198116909155604051600160a060020a039091169081907f24f4590b0077912a4db89e7430de7986175c27bede1b47ee039e3b421c2e798e90600090a250565b60408051808201909152600a81527f50617950616c2055534400000000000000000000000000000000000000000000602082015281565b60045460009060a060020a900460ff1615610b2f576040805160e560020a62461bcd02815260206004820152600d60248201526000805160206137f8833981519152604482015290519081900360640190fd5b600160a060020a03831660009081526006602052604090205460ff16158015610b6857503360009081526006602052604090205460ff16155b1515610bac576040805160e560020a62461bcd02815260206004820152600e60248201526000805160206137d8833981519152604482015290519081900360640190fd5b336000818152600360209081526040808320600160a060020a03881680855290835292819020869055805186815290519293927f8c5be1e5ebec7d5bd14f71427d1e84f3dd0314c0f7b2291e5b200ac8c7c3b925929181900390910190a350600192915050565b600554600160a060020a031681565b60025490565b60008088518a51148015610c3d575087518a51145b8015610c4a575086518a51145b8015610c57575085518a51145b1515610cad576040805160e560020a62461bcd02815260206004820152600f60248201527f6c656e677468206d69736d617463680000000000000000000000000000000000604482015290519081900360640190fd5b84518a51148015610cbf575083518a51145b8015610ccc575082518a51145b1515610d22576040805160e560020a62461bcd02815260206004820152600f60248201527f6c656e677468206d69736d617463680000000000000000000000000000000000604482015290519081900360640190fd5b5060005b8951811015610e0057610df78a82815181101515610d4057fe5b906020019060200201518a83815181101515610d5857fe5b906020019060200201518a84815181101515610d7057fe5b906020019060200201518a85815181101515610d8857fe5b906020019060200201518a86815181101515610da057fe5b906020019060200201518a87815181101515610db857fe5b906020019060200201518a88815181101515610dd057fe5b906020019060200201518a89815181101515610de857fe5b90602001906020020151612ca0565b50600101610d26565b5060019998505050505050505050565b60008060008089516041141515610e71576040805160e560020a62461bcd02815260206004820152601f60248201527f7369676e61747572652073686f756c642068617665206c656e67746820363500604482015290519081900360640190fd5b50505060208701516040880151606089015160001a610e968383838c8c8c8c8c612ca0565b5060019a9950505050505050505050565b60045460009060a060020a900460ff1615610efa576040805160e560020a62461bcd02815260206004820152600d60248201526000805160206137f8833981519152604482015290519081900360640190fd5b600160a060020a0383161515610f5a576040805160e560020a62461bcd02815260206004820152601f60248201527f63616e6e6f74207472616e7366657220746f2061646472657373207a65726f00604482015290519081900360640190fd5b600160a060020a03831660009081526006602052604090205460ff16158015610f9c5750600160a060020a03841660009081526006602052604090205460ff16155b8015610fb857503360009081526006602052604090205460ff16155b1515610ffc576040805160e560020a62461bcd02815260206004820152600e60248201526000805160206137d8833981519152604482015290519081900360640190fd5b600160a060020a03841660009081526001602052604090205482111561106c576040805160e560020a62461bcd02815260206004820152601260248201527f696e73756666696369656e742066756e64730000000000000000000000000000604482015290519081900360640190fd5b600160a060020a03841660009081526003602090815260408083203384529091529020548211156110e7576040805160e560020a62461bcd02815260206004820152601660248201527f696e73756666696369656e7420616c6c6f77616e636500000000000000000000604482015290519081900360640190fd5b600160a060020a038416600090815260016020526040902054611110908363ffffffff61363616565b600160a060020a038086166000908152600160205260408082209390935590851681522054611145908363ffffffff61364d16565b600160a060020a038085166000908152600160209081526040808320949094559187168152600382528281203382529091522054611189908363ffffffff61363616565b600160a060020a0380861660008181526003602090815260408083203384528252918290209490945580518681529051928716939192600080516020613818833981519152929181900390910190a35060019392505050565b600681565b600454600160a060020a03163314611237576040805160e560020a62461bcd0281526020600482015260096024820152600080516020613838833981519152604482015290519081900360640190fd5b60045460a060020a900460ff16151561129a576040805160e560020a62461bcd02815260206004820152601060248201527f616c726561647920756e70617573656400000000000000000000000000000000604482015290519081900360640190fd5b6004805474ff0000000000000000000000000000000000000000191690556040517f7805862f689e2f13df9f062ff482ad3ad112aca9e0847911ed832e158c525b3390600090a1565b600554600160a060020a03163314611345576040805160e560020a62461bcd02815260206004820152601760248201527f6f6e6c79417373657450726f74656374696f6e526f6c65000000000000000000604482015290519081900360640190fd5b600160a060020a03811660009081526006602052604090205460ff1615156113b7576040805160e560020a62461bcd02815260206004820152601860248201527f6164647265737320616c726561647920756e66726f7a656e0000000000000000604482015290519081900360640190fd5b600160a060020a038116600081815260066020526040808220805460ff19169055517fc3776b472ebf54114339eec9e4dc924e7ce307a97f5c1ee72b6d474e6e5e8b7c9190a250565b600160a060020a039091166000908152600160205260409020819055600255565b600854600090600160a060020a03163314611486576040805160e560020a62461bcd02815260206004820152601160248201527f6f6e6c7950726f706f7365644f776e6572000000000000000000000000000000604482015290519081900360640190fd5b506004805460088054600160a060020a0319808416600160a060020a038381169190911795869055911690915560405191811692169082907f8be0079c531659141344cd1fd0a4f28419497f9722a3daafe3b4186f6b6457e090600090a350565b600754600160a060020a031633148061150a5750600454600160a060020a031633145b1515611560576040805160e560020a62461bcd02815260206004820152601e60248201527f6f6e6c7920537570706c79436f6e74726f6c6c6572206f72204f776e65720000604482015290519081900360640190fd5b600160a060020a03811615156115e6576040805160e560020a62461bcd02815260206004820152602c60248201527f63616e6e6f742073657420737570706c7920636f6e74726f6c6c657220746f2060448201527f61646472657373207a65726f0000000000000000000000000000000000000000606482015290519081900360840190fd5b600754600160a060020a0382811691161415611671576040805160e560020a62461bcd028152602060048201526024808201527f6e657720616464726573732069732073616d6520617320612063757272656e7460448201527f206f6e6500000000000000000000000000000000000000000000000000000000606482015290519081900360840190fd5b600754604051600160a060020a038084169216907f40d53b0b666e4424f29d55244e7e171a1dc332acc11d04ed4abd884629d8cc9790600090a360078054600160a060020a031916600160a060020a0392909216919091179055565b60045460a060020a900460ff1681565b600454600090819060a060020a900460ff1615611732576040805160e560020a62461bcd02815260206004820152600d60248201526000805160206137f8833981519152604482015290519081900360640190fd5b600160a060020a03841660009081526006602052604090205460ff1615801561176b57503360009081526006602052604090205460ff16155b15156117af576040805160e560020a62461bcd02815260206004820152600e60248201526000805160206137d8833981519152604482015290519081900360640190fd5b50336000908152600360209081526040808320600160a060020a03871684529091529020548083111561180557336000908152600360209081526040808320600160a060020a038816845290915281205561183a565b611815818463ffffffff61363616565b336000908152600360209081526040808320600160a060020a03891684529091529020555b336000818152600360209081526040808320600160a060020a0389168085529083529281902054815190815290519293927f8c5be1e5ebec7d5bd14f71427d1e84f3dd0314c0f7b2291e5b200ac8c7c3b925929181900390910190a35060019392505050565b600160a060020a031660009081526001602052604090205490565b60005460ff1615611988576040805160e560020a62461bcd02815260206004820152607a60248201527f4d414e4441544f525920564552494649434154494f4e2052455155495245443a60448201527f205468652070726f78792068617320616c7265616479206265656e20696e697460648201527f69616c697a65642c2076657269667920746865206f776e657220616e6420737560848201527f70706c7920636f6e74726f6c6c6572206164647265737365732e00000000000060a482015290519081900360c40190fd5b6004805433600160a060020a03199182168117909255600580548216905560006002556007805490911690911790556119bf613666565b6000805460ff19166001179055565b600454600160a060020a03163314611a1e576040805160e560020a62461bcd0281526020600482015260096024820152600080516020613838833981519152604482015290519081900360640190fd5b60045460a060020a900460ff1615611a80576040805160e560020a62461bcd02815260206004820152600e60248201527f616c726561647920706175736564000000000000000000000000000000000000604482015290519081900360640190fd5b6004805474ff0000000000000000000000000000000000000000191660a060020a1790556040517f6985a02210a168e66602d3235cb6db0e70f92b3ba4d376a33c0f3d9434bff62590600090a1565b600160a060020a03166000908152600b602052604090205490565b600554600160a060020a0316331480611b0d5750600454600160a060020a031633145b1515611b89576040805160e560020a62461bcd02815260206004820152602160248201527f6f6e6c7920617373657450726f74656374696f6e526f6c65206f72204f776e6560448201527f7200000000000000000000000000000000000000000000000000000000000000606482015290519081900360840190fd5b600554600160a060020a0382811691161415611c14576040805160e560020a62461bcd028152602060048201526024808201527f6e657720616464726573732069732073616d6520617320612063757272656e7460448201527f206f6e6500000000000000000000000000000000000000000000000000000000606482015290519081900360840190fd5b600554604051600160a060020a038084169216907fd0c36a0ac0fe0d375386bd568fa2947a2dae7523a0a0cfdab20b7532a105bd1b90600090a360058054600160a060020a031916600160a060020a0392909216919091179055565b600554600160a060020a03163314611cd2576040805160e560020a62461bcd02815260206004820152601760248201527f6f6e6c79417373657450726f74656374696f6e526f6c65000000000000000000604482015290519081900360640190fd5b600160a060020a03811660009081526006602052604090205460ff1615611d43576040805160e560020a62461bcd02815260206004820152601660248201527f6164647265737320616c72656164792066726f7a656e00000000000000000000604482015290519081900360640190fd5b600160a060020a038116600081815260066020526040808220805460ff19166001179055517f90811a8edd3b3c17eeaefffc17f639cc69145d41a359c9843994dc25382036909190a250565b600454600160a060020a031681565b60408051808201909152600581527f5059555344000000000000000000000000000000000000000000000000000000602082015281565b600954600160a060020a0316331480611df85750600454600160a060020a031633145b1515611e4e576040805160e560020a62461bcd02815260206004820152601960248201527f6f6e6c792057686974656c6973746572206f72204f776e657200000000000000604482015290519081900360640190fd5b600954600160a060020a0382811691161415611ed9576040805160e560020a62461bcd028152602060048201526024808201527f6e657720616464726573732069732073616d6520617320612063757272656e7460448201527f206f6e6500000000000000000000000000000000000000000000000000000000606482015290519081900360840190fd5b60098054600160a060020a031916600160a060020a0383811691821792839055604051919216907f54e20b07412504aee4d17519747ae2f01b9924f7f30059793fe5576c4220a0c390600090a350565b600754600090600160a060020a03163314611f8e576040805160e560020a62461bcd02815260206004820152601460248201527f6f6e6c79537570706c79436f6e74726f6c6c6572000000000000000000000000604482015290519081900360640190fd5b600754600160a060020a0316600090815260016020526040902054821115612000576040805160e560020a62461bcd02815260206004820152601160248201527f6e6f7420656e6f75676820737570706c79000000000000000000000000000000604482015290519081900360640190fd5b600754600160a060020a031660009081526001602052604090205461202b908363ffffffff61363616565b600754600160a060020a0316600090815260016020526040902055600254612059908363ffffffff61363616565b600255600754604080518481529051600160a060020a03909216917f1b7e18241beced0d7f41fbab1ea8ed468732edbcb74ec4420151654ca71c8a639181900360200190a2600754604080518481529051600092600160a060020a031691600080516020613818833981519152919081900360200190a3506001919050565b600160a060020a03166000908152600a602052604090205460ff1690565b60045460009060a060020a900460ff1615612149576040805160e560020a62461bcd02815260206004820152600d60248201526000805160206137f8833981519152604482015290519081900360640190fd5b600160a060020a03831615156121a9576040805160e560020a62461bcd02815260206004820152601f60248201527f63616e6e6f74207472616e7366657220746f2061646472657373207a65726f00604482015290519081900360640190fd5b600160a060020a03831660009081526006602052604090205460ff161580156121e257503360009081526006602052604090205460ff16155b1515612226576040805160e560020a62461bcd02815260206004820152600e60248201526000805160206137d8833981519152604482015290519081900360640190fd5b3360009081526001602052604090205482111561228d576040805160e560020a62461bcd02815260206004820152601260248201527f696e73756666696369656e742066756e64730000000000000000000000000000604482015290519081900360640190fd5b336000908152600160205260409020546122ad908363ffffffff61363616565b3360009081526001602052604080822092909255600160a060020a038516815220546122df908363ffffffff61364d16565b600160a060020a0384166000818152600160209081526040918290209390935580518581529051919233926000805160206138188339815191529281900390910190a350600192915050565b600954600160a060020a0316331461238d576040805160e560020a62461bcd02815260206004820152601b60248201527f6f6e6c794265746144656c656761746557686974656c69737465720000000000604482015290519081900360640190fd5b600160a060020a0381166000908152600a602052604090205460ff16156123fe576040805160e560020a62461bcd02815260206004820152601c60248201527f64656c656761746520616c72656164792077686974656c697374656400000000604482015290519081900360640190fd5b600160a060020a0381166000818152600a6020526040808220805460ff19166001179055517f8a22e0d8ecb02260464e9a55b7d82b17482735ae1f765de59dee573dfec5b36d9190a250565b600454600090600160a060020a0316331461249d576040805160e560020a62461bcd0281526020600482015260096024820152600080516020613838833981519152604482015290519081900360640190fd5b5030600090815260016020526040808220805490839055600454600160a060020a031683529120546124d5908263ffffffff61364d16565b60048054600160a060020a03908116600090815260016020908152604091829020949094559154825185815292519116923092600080516020613818833981519152929081900390910190a350565b600454600160a060020a03163314612574576040805160e560020a62461bcd0281526020600482015260096024820152600080516020613838833981519152604482015290519081900360640190fd5b600160a060020a03811615156125fa576040805160e560020a62461bcd02815260206004820152602960248201527f63616e6e6f74207472616e73666572206f776e65727368697020746f2061646460448201527f72657373207a65726f0000000000000000000000000000000000000000000000606482015290519081900360840190fd5b33600160a060020a038216141561265b576040805160e560020a62461bcd02815260206004820152601760248201527f63616c6c657220616c7265616479206973206f776e6572000000000000000000604482015290519081900360640190fd5b60088054600160a060020a031916600160a060020a038381169190911791829055600454604051928216929116907ff4e75b79500ab730f8a026ed3cba6d55331bcb64c9e9f60c548e371356e5e3c090600090a350565b600754600090600160a060020a03163314612717576040805160e560020a62461bcd02815260206004820152601460248201527f6f6e6c79537570706c79436f6e74726f6c6c6572000000000000000000000000604482015290519081900360640190fd5b60025461272a908363ffffffff61364d16565b600255600754600160a060020a0316600090815260016020526040902054612758908363ffffffff61364d16565b60078054600160a060020a03908116600090815260016020908152604091829020949094559154825186815292519116927ff5c174d57843e57fea3c649fdde37f015ef08750759cbee88060390566a98797928290030190a2600754604080518481529051600160a060020a0390921691600091600080516020613818833981519152919081900360200190a3506001919050565b600954600160a060020a031681565b600854600160a060020a031681565b60045460009060a060020a900460ff161561285e576040805160e560020a62461bcd02815260206004820152600d60248201526000805160206137f8833981519152604482015290519081900360640190fd5b600160a060020a03831660009081526006602052604090205460ff1615801561289757503360009081526006602052604090205460ff16155b15156128db576040805160e560020a62461bcd02815260206004820152600e60248201526000805160206137d8833981519152604482015290519081900360640190fd5b336000908152600360209081526040808320600160a060020a038716845290915290205461290f908363ffffffff61364d16565b336000818152600360209081526040808320600160a060020a0389168085529083529281902085905580519485525191937f8c5be1e5ebec7d5bd14f71427d1e84f3dd0314c0f7b2291e5b200ac8c7c3b925929081900390910190a350600192915050565b600954600160a060020a031633146129d6576040805160e560020a62461bcd02815260206004820152601b60248201527f6f6e6c794265746144656c656761746557686974656c69737465720000000000604482015290519081900360640190fd5b600160a060020a0381166000908152600a602052604090205460ff161515612a48576040805160e560020a62461bcd02815260206004820152601860248201527f64656c6567617465206e6f742077686974656c69737465640000000000000000604482015290519081900360640190fd5b600160a060020a0381166000818152600a6020526040808220805460ff19169055517f12acb305bec2ecc1e4568decc9c8e0423749ceb6ae249eaef4ef375ec174a49c9190a250565b600160a060020a03918216600090815260036020908152604080832093909416825291909152205490565b600554600090600160a060020a03163314612b21576040805160e560020a62461bcd02815260206004820152601760248201527f6f6e6c79417373657450726f74656374696f6e526f6c65000000000000000000604482015290519081900360640190fd5b600160a060020a03821660009081526006602052604090205460ff161515612b93576040805160e560020a62461bcd02815260206004820152601560248201527f61646472657373206973206e6f742066726f7a656e0000000000000000000000604482015290519081900360640190fd5b50600160a060020a03811660009081526001602052604081208054919055600254612bc4908263ffffffff61363616565b600255604051600160a060020a038316907ffc5960f1c5a5d2b60f031bf534af053b1bf7d9881989afaeb8b1d164db23aede90600090a2604080518281529051600160a060020a038416917f1b7e18241beced0d7f41fbab1ea8ed468732edbcb74ec4420151654ca71c8a63919081900360200190a2604080518281529051600091600160a060020a038516916000805160206138188339815191529181900360200190a35050565b600c5481565b600160a060020a031660009081526006602052604090205460ff1690565b600754600160a060020a031681565b60045460009081908190819060a060020a900460ff1615612cf9576040805160e560020a62461bcd02815260206004820152600d60248201526000805160206137f8833981519152604482015290519081900360640190fd5b336000908152600a602052604090205460ff161515612d88576040805160e560020a62461bcd02815260206004820152602f60248201527f426574612066656174757265206f6e6c7920616363657074732077686974656c60448201527f69737465642064656c6567617465730000000000000000000000000000000000606482015290519081900360840190fd5b6000881180612d975750600087115b1515612e13576040805160e560020a62461bcd02815260206004820152602960248201527f63616e6e6f74207472616e73666572207a65726f20746f6b656e73207769746860448201527f207a65726f206665650000000000000000000000000000000000000000000000606482015290519081900360840190fd5b43851015612e6b576040805160e560020a62461bcd02815260206004820152601360248201527f7472616e73616374696f6e206578706972656400000000000000000000000000604482015290519081900360640190fd5b7f7fffffffffffffffffffffffffffffff5d576e7357a4501ddfe92f46681b20a060008c901c1115612ee7576040805160e560020a62461bcd02815260206004820152601360248201527f7369676e617475726520696e636f727265637400000000000000000000000000604482015290519081900360640190fd5b8960ff16601b1480612efc57508960ff16601c145b1515612f52576040805160e560020a62461bcd02815260206004820152601360248201527f7369676e617475726520696e636f727265637400000000000000000000000000604482015290519081900360640190fd5b604080517f4265746144656c6567617465645472616e73666572286164647265737320746f81527f2c75696e743235362076616c75652c75696e74323536206665652c75696e74326020808301919091527f3536207365712c75696e7432353620646561646c696e6529000000000000000082840152825191829003605801822082820152600160a060020a038c1660001b82840152606082018b9052608082018a905260a0820189905260c08083018990528351808403909101815260e090920192839052815191929182918401908083835b602083106130455780518252601f199092019160209182019101613026565b51815160209384036101000a600019018019909216911617905260408051929094018290038220828501855260028084527f1901000000000000000000000000000000000000000000000000000000000000848401908152600c549651929b509397509495508994910192508291908083835b602083106130d75780518252601f1990920191602091820191016130b8565b51815160209384036101000a6000190180199092169116179052920194855250838101929092525060408051808403830181529281019081905282519293509182918401908083835b6020831061313f5780518252601f199092019160209182019101613120565b6001836020036101000a038019825116818451168082178552505050505050905001915050604051809103902091506001828b8e8e604051600081526020016040526040518085600019166000191681526020018460ff1660ff1681526020018360001916600019168152602001826000191660001916815260200194505050505060206040516020810390808403906000865af11580156131e5573d6000803e3d6000fd5b5050604051601f190151915050600160a060020a0381161515613278576040805160e560020a62461bcd02815260206004820152602d60248201527f6572726f722064657465726d696e696e672066726f6d2061646472657373206660448201527f726f6d207369676e617475726500000000000000000000000000000000000000606482015290519081900360840190fd5b600160a060020a03891615156132d8576040805160e560020a62461bcd02815260206004820152601660248201527f63616e6e6f207573652061646472657373207a65726f00000000000000000000604482015290519081900360640190fd5b600160a060020a03891660009081526006602052604090205460ff1615801561331a5750600160a060020a03811660009081526006602052604090205460ff16155b801561333657503360009081526006602052604090205460ff16155b151561337a576040805160e560020a62461bcd02815260206004820152600e60248201526000805160206137d8833981519152604482015290519081900360640190fd5b600160a060020a0381166000908152600160205260409020546133a3898963ffffffff61364d16565b11156133f9576040805160e560020a62461bcd02815260206004820152601160248201527f696e73756666696369656e742066756e64000000000000000000000000000000604482015290519081900360640190fd5b600160a060020a0381166000908152600b60205260409020548614613468576040805160e560020a62461bcd02815260206004820152600d60248201527f696e636f72726563742073657100000000000000000000000000000000000000604482015290519081900360640190fd5b600160a060020a0381166000908152600b602052604090205461349290600163ffffffff61364d16565b600160a060020a0382166000908152600b60205260409020556134e36134be898963ffffffff61364d16565b600160a060020a0383166000908152600160205260409020549063ffffffff61363616565b600160a060020a03821660009081526001602052604090205586156135665733600090815260016020526040902054613522908863ffffffff61364d16565b336000818152600160209081526040918290209390935580518a815290519192600160a060020a038516926000805160206138188339815191529281900390910190a35b600160a060020a03891660009081526001602052604090205461358f908963ffffffff61364d16565b600160a060020a03808b166000818152600160209081526040918290209490945580518c8152905191939285169260008051602061381883398151915292918290030190a360408051898152602081018890528082018990529051600160a060020a03808c1692908416917fe526c2818be85606ab8e0ea3f317c198ef15baabbb4430bcf2d836eed3c7769b9181900360600190a35060019b9a5050505050505050505050565b6000808383111561364657600080fd5b5050900390565b60008282018381101561365f57600080fd5b9392505050565b604080517f454950373132446f6d61696e28737472696e67206e616d652c6164647265737381527f20766572696679696e67436f6e7472616374290000000000000000000000000060208083019190915282519182900360330182208284018452600a8084527f50617950616c205553440000000000000000000000000000000000000000000092840192835293519093909182918083835b6020831061371e5780518252601f1990920191602091820191016136ff565b51815160209384036101000a60001901801990921691161790526040805192909401829003822082820197909752818401969096523060001b60608083019190915283518083039091018152608090910192839052805190959294508493509185019190508083835b602083106137a65780518252601f199092019160209182019101613787565b5181516020939093036101000a60001901801990911692169190911790526040519201829003909120600c555050505600616464726573732066726f7a656e0000000000000000000000000000000000007768656e4e6f7450617573656400000000000000000000000000000000000000ddf252ad1be2c89b69c2b068fc378daa952ba7f163c4a11628f55a4df523b3ef6f6e6c794f776e65720000000000000000000000000000000000000000000000a165627a7a7230582070ce3fb79184800226cb003a58e8bff66045c9db07fd88877305ac4183a10b110029",
    "linkReferences": {}
  },
  "methodIdentifiers": {
    "EIP712_DOMAIN_HASH()": "e306f779",
    "allowance(address,address)": "dd62ed3e",
    "approve(address,uint256)": "095ea7b3",
    "assetProtectionRole()": "0a91b601",
    "balanceOf(address)": "70a08231",
    "betaDelegateWhitelister()": "c4f62fee",
    "betaDelegatedTransfer(bytes,address,uint256,uint256,uint256,uint256)": "21ab11f7",
    "betaDelegatedTransferBatch(bytes32[],bytes32[],uint8[],address[],uint256[],uint256[],uint256[],uint256[])": "1b670561",
    "claimOwnership()": "4e71e0c8",
    "decimals()": "313ce567",
    "decreaseApproval(address,uint256)": "66188463",
    "decreaseSupply(uint256)": "98e52f9a",
    "disregardProposeOwner()": "03acb448",
    "freeze(address)": "8d1fdf2f",
    "increaseApproval(address,uint256)": "d73dd623",
    "increaseSupply(uint256)": "b921e163",
    "initialize()": "8129fc1c",
    "initializeBalance(address,uint256)": "48facd4c",
    "isFrozen(address)": "e5839836",
    "isWhitelistedBetaDelegate(address)": "a7d87ed0",
    "name()": "06fdde03",
    "nextSeqOf(address)": "89f72c21",
    "owner()": "8da5cb5b",
    "pause()": "8456cb59",
    "paused()": "5c975abb",
    "proposeOwner(address)": "b5ed298a",
    "proposedOwner()": "d153b60c",
    "reclaimPYUSD()": "b35ae5be",
    "setAssetProtectionRole(address)": "8ceed9cb",
    "setBetaDelegateWhitelister(address)": "97d60d56",
    "setSupplyController(address)": "52875bc3",
    "supplyController()": "e7ba1012",
    "symbol()": "95d89b41",
    "totalSupply()": "18160ddd",
    "transfer(address,uint256)": "a9059cbb",
    "transferFrom(address,address,uint256)": "23b872dd",
    "unfreeze(address)": "45c8b1a6",
    "unpause()": "3f4ba83a",
    "unwhitelistBetaDelegate(address)": "d990c618",
    "whitelistBetaDelegate(address)": "ac69275c",
    "wipeFrozenAddress(address)": "e2f72f03"
  },
  "id": 2
}