{
  "abi": [
    {
      "inputs": [],
      "stateMutability": "payable",
      "type": "constructor"
    },
    {
      "inputs": [],
      "name": "AllowanceOverflow",
      "type": "error"
    },
    {
      "inputs": [],
      "name": "AllowanceUnderflow",
      "type": "error"
    },
    {
      "inputs": [],
      "name": "ErrorDerivingSender",
      "type": "error"
    },
    {
      "inputs": [],
      "name": "Frozen",
      "type": "error"
    },
    {
      "inputs": [],
      "name": "IncorrectSeq",
      "type": "error"
    },
    {
      "inputs": [],
      "name": "InsufficientAllowance",
      "type": "error"
    },
    {
      "inputs": [],
      "name": "InsufficientBalance",
      "type": "error"
    },
    {
      "inputs": [],
      "name": "InsufficientFunds",
      "type": "error"
    },
    {
      "inputs": [],
      "name": "InvalidPermit",
      "type": "error"
    },
    {
      "inputs": [],
      "name": "LengthMismatch",
      "type": "error"
    },
    {
      "inputs": [],
      "name": "NoProposedOwner",
      "type": "error"
    },
    {
      "inputs": [],
      "name": "NotAssetProtector",
      "type": "error"
    },
    {
      "inputs": [],
      "name": "NotBetaDelegateWhitelister",
      "type": "error"
    },
    {
      "inputs": [],
      "name": "NotFrozen",
      "type": "error"
    },
    {
      "inputs": [],
      "name": "NotOwnerOrAssetProtector",
      "type": "error"
    },
    {
      "inputs": [],
      "name": "NotOwnerOrProposedOwner",
      "type": "error"
    },
    {
      "inputs": [],
      "name": "NotOwnerOrSupplyController",
      "type": "error"
    },
    {
      "inputs": [],
      "name": "NotOwnerOrWhitelister",
      "type": "error"
    },
    {
      "inputs": [],
      "name": "NotSupplyController",
      "type": "error"
    },
    {
      "inputs": [],
      "name": "NotWhitelisted",
      "type": "error"
    },
    {
      "inputs": [],
      "name": "NotWhitelistedDelegate",
      "type": "error"
    },
    {
      "inputs": [],
      "name": "PermitExpired",
      "type": "error"
    },
    {
      "inputs": [],
      "name": "SameAddress",
      "type": "error"
    },
    {
      "inputs": [],
      "name": "SigIncorrect",
      "type": "error"
    },
    {
      "inputs": [],
      "name": "SigLength",
      "type": "error"
    },
    {
      "inputs": [],
      "name": "TotalSupplyOverflow",
      "type": "error"
    },
    {
      "inputs": [],
      "name": "TransactionExpired",
      "type": "error"
    },
    {
      "inputs": [],
      "name": "Whitelisted",
      "type": "error"
    },
    {
      "inputs": [],
      "name": "ZeroAddress",
      "type": "error"
    },
    {
      "inputs": [],
      "name": "ZeroValues",
      "type": "error"
    },
    {
      "anonymous": false,
      "inputs": [
        {
          "indexed": true,
          "internalType": "address",
          "name": "addr",
          "type": "address"
        }
      ],
      "name": "AddressFrozen",
      "type": "event"
    },
    {
      "anonymous": false,
      "inputs": [
        {
          "indexed": true,
          "internalType": "address",
          "name": "addr",
          "type": "address"
        }
      ],
      "name": "AddressUnfrozen",
      "type": "event"
    },
    {
      "anonymous": false,
      "inputs": [
        {
          "indexed": true,
          "internalType": "address",
          "name": "owner",
          "type": "address"
        },
        {
          "indexed": true,
          "internalType": "address",
          "name": "spender",
          "type": "address"
        },
        {
          "indexed": false,
          "internalType": "uint256",
          "name": "amount",
          "type": "uint256"
        }
      ],
      "name": "Approval",
      "type": "event"
    },
    {
      "anonymous": false,
      "inputs": [
        {
          "indexed": true,
          "internalType": "address",
          "name": "oldAssetProtectionRole",
          "type": "address"
        },
        {
          "indexed": true,
          "internalType": "address",
          "name": "newAssetProtectionRole",
          "type": "address"
        }
      ],
      "name": "AssetProtectionRoleSet",
      "type": "event"
    },
    {
      "anonymous": false,
      "inputs": [
        {
          "indexed": true,
          "internalType": "address",
          "name": "oldDelegate",
          "type": "address"
        }
      ],
      "name": "BetaDelegateUnwhitelisted",
      "type": "event"
    },
    {
      "anonymous": false,
      "inputs": [
        {
          "indexed": true,
          "internalType": "address",
          "name": "newDelegate",
          "type": "address"
        }
      ],
      "name": "BetaDelegateWhitelisted",
      "type": "event"
    },
    {
      "anonymous": false,
      "inputs": [
        {
          "indexed": true,
          "internalType": "address",
          "name": "oldWhitelister",
          "type": "address"
        },
        {
          "indexed": true,
          "internalType": "address",
          "name": "newWhitelister",
          "type": "address"
        }
      ],
      "name": "BetaDelegateWhitelisterSet",
      "type": "event"
    },
    {
      "anonymous": false,
      "inputs": [
        {
          "indexed": true,
          "internalType": "address",
          "name": "from",
          "type": "address"
        },
        {
          "indexed": true,
          "internalType": "address",
          "name": "to",
          "type": "address"
        },
        {
          "indexed": false,
          "internalType": "uint256",
          "name": "value",
          "type": "uint256"
        },
        {
          "indexed": false,
          "internalType": "uint256",
          "name": "seq",
          "type": "uint256"
        },
        {
          "indexed": false,
          "internalType": "uint256",
          "name": "fee",
          "type": "uint256"
        }
      ],
      "name": "BetaDelegatedTransfer",
      "type": "event"
    },
    {
      "anonymous": false,
      "inputs": [
        {
          "indexed": true,
          "internalType": "address",
          "name": "addr",
          "type": "address"
        }
      ],
      "name": "FrozenAddressWiped",
      "type": "event"
    },
    {
      "anonymous": false,
      "inputs": [
        {
          "indexed": false,
          "internalType": "uint8",
          "name": "version",
          "type": "uint8"
        }
      ],
      "name": "Initialized",
      "type": "event"
    },
    {
      "anonymous": false,
      "inputs": [
        {
          "indexed": true,
          "internalType": "address",
          "name": "oldProposedOwner",
          "type": "address"
        }
      ],
      "name": "OwnershipTransferDisregarded",
      "type": "event"
    },
    {
      "anonymous": false,
      "inputs": [
        {
          "indexed": true,
          "internalType": "address",
          "name": "previousOwner",
          "type": "address"
        },
        {
          "indexed": true,
          "internalType": "address",
          "name": "newOwner",
          "type": "address"
        }
      ],
      "name": "OwnershipTransferStarted",
      "type": "event"
    },
    {
      "anonymous": false,
      "inputs": [
        {
          "indexed": true,
          "internalType": "address",
          "name": "previousOwner",
          "type": "address"
        },
        {
          "indexed": true,
          "internalType": "address",
          "name": "newOwner",
          "type": "address"
        }
      ],
      "name": "OwnershipTransferred",
      "type": "event"
    },
    {
      "anonymous": false,
      "inputs": [
        {
          "indexed": false,
          "internalType": "address",
          "name": "account",
          "type": "address"
        }
      ],
      "name": "Paused",
      "type": "event"
    },
    {
      "anonymous": false,
      "inputs": [
        {
          "indexed": true,
          "internalType": "address",
          "name": "oldSupplyController",
          "type": "address"
        },
        {
          "indexed": true,
          "internalType": "address",
          "name": "newSupplyController",
          "type": "address"
        }
      ],
      "name": "SupplyControllerSet",
      "type": "event"
    },
    {
      "anonymous": false,
      "inputs": [
        {
          "indexed": true,
          "internalType": "address",
          "name": "from",
          "type": "address"
        },
        {
          "indexed": false,
          "internalType": "uint256",
          "name": "value",
          "type": "uint256"
        }
      ],
      "name": "SupplyDecreased",
      "type": "event"
    },
    {
      "anonymous": false,
      "inputs": [
        {
          "indexed": true,
          "internalType": "address",
          "name": "to",
          "type": "address"
        },
        {
          "indexed": false,
          "internalType": "uint256",
          "name": "value",
          "type": "uint256"
        }
      ],
      "name": "SupplyIncreased",
      "type": "event"
    },
    {
      "anonymous": false,
      "inputs": [
        {
          "indexed": true,
          "internalType": "address",
          "name": "from",
          "type": "address"
        },
        {
          "indexed": true,
          "internalType": "address",
          "name": "to",
          "type": "address"
        },
        {
          "indexed": false,
          "internalType": "uint256",
          "name": "amount",
          "type": "uint256"
        }
      ],
      "name": "Transfer",
      "type": "event"
    },
    {
      "anonymous": false,
      "inputs": [
        {
          "indexed": false,
          "internalType": "address",
          "name": "account",
          "type": "address"
        }
      ],
      "name": "Unpaused",
      "type": "event"
    },
    {
      "inputs": [],
      "name": "DOMAIN_SEPARATOR",
      "outputs": [
        {
          "internalType": "bytes32",
          "name": "result",
          "type": "bytes32"
        }
      ],
      "stateMutability": "view",
      "type": "function"
    },
    {
      "inputs": [],
      "name": "EIP712_DOMAIN_HASH",
      "outputs": [
        {
          "internalType": "bytes32",
          "name": "",
          "type": "bytes32"
        }
      ],
      "stateMutability": "view",
      "type": "function"
    },
    {
      "inputs": [],
      "name": "acceptOwnership",
      "outputs": [],
      "stateMutability": "nonpayable",
      "type": "function"
    },
    {
      "inputs": [
        {
          "internalType": "address",
          "name": "owner",
          "type": "address"
        },
        {
          "internalType": "address",
          "name": "spender",
          "type": "address"
        }
      ],
      "name": "allowance",
      "outputs": [
        {
          "internalType": "uint256",
          "name": "result",
          "type": "uint256"
        }
      ],
      "stateMutability": "view",
      "type": "function"
    },
    {
      "inputs": [
        {
          "internalType": "address",
          "name": "_spender",
          "type": "address"
        },
        {
          "internalType": "uint256",
          "name": "_value",
          "type": "uint256"
        }
      ],
      "name": "approve",
      "outputs": [
        {
          "internalType": "bool",
          "name": "",
          "type": "bool"
        }
      ],
      "stateMutability": "nonpayable",
      "type": "function"
    },
    {
      "inputs": [],
      "name": "assetProtectionRole",
      "outputs": [
        {
          "internalType": "address",
          "name": "",
          "type": "address"
        }
      ],
      "stateMutability": "view",
      "type": "function"
    },
    {
      "inputs": [
        {
          "internalType": "address",
          "name": "owner",
          "type": "address"
        }
      ],
      "name": "balanceOf",
      "outputs": [
        {
          "internalType": "uint256",
          "name": "result",
          "type": "uint256"
        }
      ],
      "stateMutability": "view",
      "type": "function"
    },
    {
      "inputs": [],
      "name": "betaDelegateWhitelister",
      "outputs": [
        {
          "internalType": "address",
          "name": "",
          "type": "address"
        }
      ],
      "stateMutability": "view",
      "type": "function"
    },
    {
      "inputs": [
        {
          "internalType": "bytes",
          "name": "sig",
          "type": "bytes"
        },
        {
          "internalType": "address",
          "name": "to",
          "type": "address"
        },
        {
          "internalType": "uint256",
          "name": "value",
          "type": "uint256"
        },
        {
          "internalType": "uint256",
          "name": "fee",
          "type": "uint256"
        },
        {
          "internalType": "uint256",
          "name": "seq",
          "type": "uint256"
        },
        {
          "internalType": "uint256",
          "name": "deadline",
          "type": "uint256"
        }
      ],
      "name": "betaDelegatedTransfer",
      "outputs": [
        {
          "internalType": "bool",
          "name": "",
          "type": "bool"
        }
      ],
      "stateMutability": "nonpayable",
      "type": "function"
    },
    {
      "inputs": [
        {
          "internalType": "bytes32[]",
          "name": "r",
          "type": "bytes32[]"
        },
        {
          "internalType": "bytes32[]",
          "name": "s",
          "type": "bytes32[]"
        },
        {
          "internalType": "uint8[]",
          "name": "v",
          "type": "uint8[]"
        },
        {
          "internalType": "address[]",
          "name": "to",
          "type": "address[]"
        },
        {
          "internalType": "uint256[]",
          "name": "value",
          "type": "uint256[]"
        },
        {
          "internalType": "uint256[]",
          "name": "fee",
          "type": "uint256[]"
        },
        {
          "internalType": "uint256[]",
          "name": "seq",
          "type": "uint256[]"
        },
        {
          "internalType": "uint256[]",
          "name": "deadline",
          "type": "uint256[]"
        }
      ],
      "name": "betaDelegatedTransferBatch",
      "outputs": [
        {
          "internalType": "bool",
          "name": "",
          "type": "bool"
        }
      ],
      "stateMutability": "nonpayable",
      "type": "function"
    },
    {
      "inputs": [],
      "name": "decimals",
      "outputs": [
        {
          "internalType": "uint8",
          "name": "",
          "type": "uint8"
        }
      ],
      "stateMutability": "pure",
      "type": "function"
    },
    {
      "inputs": [
        {
          "internalType": "address",
          "name": "spender",
          "type": "address"
        },
        {
          "internalType": "uint256",
          "name": "difference",
          "type": "uint256"
        }
      ],
      "name": "decreaseAllowance",
      "outputs": [
        {
          "internalType": "bool",
          "name": "",
          "type": "bool"
        }
      ],
      "stateMutability": "nonpayable",
      "type": "function"
    },
    {
      "inputs": [
        {
          "internalType": "address",
          "name": "_spender",
          "type": "address"
        },
        {
          "internalType": "uint256",
          "name": "_subtractedValue",
          "type": "uint256"
        }
      ],
      "name": "decreaseApproval",
      "outputs": [
        {
          "internalType": "bool",
          "name": "",
          "type": "bool"
        }
      ],
      "stateMutability": "nonpayable",
      "type": "function"
    },
    {
      "inputs": [
        {
          "internalType": "uint256",
          "name": "_value",
          "type": "uint256"
        }
      ],
      "name": "decreaseSupply",
      "outputs": [
        {
          "internalType": "bool",
          "name": "success",
          "type": "bool"
        }
      ],
      "stateMutability": "nonpayable",
      "type": "function"
    },
    {
      "inputs": [],
      "name": "disregardProposedOwner",
      "outputs": [],
      "stateMutability": "nonpayable",
      "type": "function"
    },
    {
      "inputs": [
        {
          "internalType": "address",
          "name": "_addr",
          "type": "address"
        }
      ],
      "name": "freeze",
      "outputs": [],
      "stateMutability": "nonpayable",
      "type": "function"
    },
    {
      "inputs": [
        {
          "internalType": "address",
          "name": "spender",
          "type": "address"
        },
        {
          "internalType": "uint256",
          "name": "difference",
          "type": "uint256"
        }
      ],
      "name": "increaseAllowance",
      "outputs": [
        {
          "internalType": "bool",
          "name": "",
          "type": "bool"
        }
      ],
      "stateMutability": "nonpayable",
      "type": "function"
    },
    {
      "inputs": [
        {
          "internalType": "address",
          "name": "_spender",
          "type": "address"
        },
        {
          "internalType": "uint256",
          "name": "_addedValue",
          "type": "uint256"
        }
      ],
      "name": "increaseApproval",
      "outputs": [
        {
          "internalType": "bool",
          "name": "",
          "type": "bool"
        }
      ],
      "stateMutability": "nonpayable",
      "type": "function"
    },
    {
      "inputs": [
        {
          "internalType": "uint256",
          "name": "_value",
          "type": "uint256"
        }
      ],
      "name": "increaseSupply",
      "outputs": [
        {
          "internalType": "bool",
          "name": "success",
          "type": "bool"
        }
      ],
      "stateMutability": "nonpayable",
      "type": "function"
    },
    {
      "inputs": [],
      "name": "initialize",
      "outputs": [],
      "stateMutability": "nonpayable",
      "type": "function"
    },
    {
      "inputs": [
        {
          "internalType": "address",
          "name": "_addr",
          "type": "address"
        }
      ],
      "name": "isFrozen",
      "outputs": [
        {
          "internalType": "bool",
          "name": "",
          "type": "bool"
        }
      ],
      "stateMutability": "view",
      "type": "function"
    },
    {
      "inputs": [
        {
          "internalType": "address",
          "name": "_addr",
          "type": "address"
        }
      ],
      "name": "isWhitelistedBetaDelegate",
      "outputs": [
        {
          "internalType": "bool",
          "name": "",
          "type": "bool"
        }
      ],
      "stateMutability": "view",
      "type": "function"
    },
    {
      "inputs": [],
      "name": "name",
      "outputs": [
        {
          "internalType": "string",
          "name": "",
          "type": "string"
        }
      ],
      "stateMutability": "pure",
      "type": "function"
    },
    {
      "inputs": [
        {
          "internalType": "address",
          "name": "target",
          "type": "address"
        }
      ],
      "name": "nextSeqOf",
      "outputs": [
        {
          "internalType": "uint256",
          "name": "",
          "type": "uint256"
        }
      ],
      "stateMutability": "view",
      "type": "function"
    },
    {
      "inputs": [
        {
          "internalType": "address",
          "name": "owner",
          "type": "address"
        }
      ],
      "name": "nonces",
      "outputs": [
        {
          "internalType": "uint256",
          "name": "result",
          "type": "uint256"
        }
      ],
      "stateMutability": "view",
      "type": "function"
    },
    {
      "inputs": [],
      "name": "owner",
      "outputs": [
        {
          "internalType": "address",
          "name": "",
          "type": "address"
        }
      ],
      "stateMutability": "view",
      "type": "function"
    },
    {
      "inputs": [],
      "name": "pause",
      "outputs": [],
      "stateMutability": "nonpayable",
      "type": "function"
    },
    {
      "inputs": [],
      "name": "paused",
      "outputs": [
        {
          "internalType": "bool",
          "name": "",
          "type": "bool"
        }
      ],
      "stateMutability": "view",
      "type": "function"
    },
    {
      "inputs": [],
      "name": "pendingOwner",
      "outputs": [
        {
          "internalType": "address",
          "name": "",
          "type": "address"
        }
      ],
      "stateMutability": "view",
      "type": "function"
    },
    {
      "inputs": [
        {
          "internalType": "address",
          "name": "owner",
          "type": "address"
        },
        {
          "internalType": "address",
          "name": "spender",
          "type": "address"
        },
        {
          "internalType": "uint256",
          "name": "value",
          "type": "uint256"
        },
        {
          "internalType": "uint256",
          "name": "deadline",
          "type": "uint256"
        },
        {
          "internalType": "uint8",
          "name": "v",
          "type": "uint8"
        },
        {
          "internalType": "bytes32",
          "name": "r",
          "type": "bytes32"
        },
        {
          "internalType": "bytes32",
          "name": "s",
          "type": "bytes32"
        }
      ],
      "name": "permit",
      "outputs": [],
      "stateMutability": "nonpayable",
      "type": "function"
    },
    {
      "inputs": [],
      "name": "proposedOwner",
      "outputs": [
        {
          "internalType": "address",
          "name": "",
          "type": "address"
        }
      ],
      "stateMutability": "view",
      "type": "function"
    },
    {
      "inputs": [],
      "name": "reclaimPYUSD",
      "outputs": [],
      "stateMutability": "nonpayable",
      "type": "function"
    },
    {
      "inputs": [],
      "name": "renounceOwnership",
      "outputs": [],
      "stateMutability": "nonpayable",
      "type": "function"
    },
    {
      "inputs": [
        {
          "internalType": "address",
          "name": "_newAssetProtectionRole",
          "type": "address"
        }
      ],
      "name": "setAssetProtectionRole",
      "outputs": [],
      "stateMutability": "nonpayable",
      "type": "function"
    },
    {
      "inputs": [
        {
          "internalType": "address",
          "name": "_newWhitelister",
          "type": "address"
        }
      ],
      "name": "setBetaDelegateWhitelister",
      "outputs": [],
      "stateMutability": "nonpayable",
      "type": "function"
    },
    {
      "inputs": [
        {
          "internalType": "address",
          "name": "_newSupplyController",
          "type": "address"
        }
      ],
      "name": "setSupplyController",
      "outputs": [],
      "stateMutability": "nonpayable",
      "type": "function"
    },
    {
      "inputs": [],
      "name": "supplyController",
      "outputs": [
        {
          "internalType": "address",
          "name": "",
          "type": "address"
        }
      ],
      "stateMutability": "view",
      "type": "function"
    },
    {
      "inputs": [],
      "name": "symbol",
      "outputs": [
        {
          "internalType": "string",
          "name": "",
          "type": "string"
        }
      ],
      "stateMutability": "pure",
      "type": "function"
    },
    {
      "inputs": [],
      "name": "totalSupply",
      "outputs": [
        {
          "internalType": "uint256",
          "name": "result",
          "type": "uint256"
        }
      ],
      "stateMutability": "view",
      "type": "function"
    },
    {
      "inputs": [
        {
          "internalType": "address",
          "name": "_to",
          "type": "address"
        },
        {
          "internalType": "uint256",
          "name": "_value",
          "type": "uint256"
        }
      ],
      "name": "transfer",
      "outputs": [
        {
          "internalType": "bool",
          "name": "",
          "type": "bool"
        }
      ],
      "stateMutability": "nonpayable",
      "type": "function"
    },
    {
      "inputs": [
        {
          "internalType": "address",
          "name": "_from",
          "type": "address"
        },
        {
          "internalType": "address",
          "name": "_to",
          "type": "address"
        },
        {
          "internalType": "uint256",
          "name": "_value",
          "type": "uint256"
        }
      ],
      "name": "transferFrom",
      "outputs": [
        {
          "internalType": "bool",
          "name": "",
          "type": "bool"
        }
      ],
      "stateMutability": "nonpayable",
      "type": "function"
    },
    {
      "inputs": [
        {
          "internalType": "address",
          "name": "newOwner",
          "type": "address"
        }
      ],
      "name": "transferOwnership",
      "outputs": [],
      "stateMutability": "nonpayable",
      "type": "function"
    },
    {
      "inputs": [
        {
          "internalType": "address",
          "name": "_addr",
          "type": "address"
        }
      ],
      "name": "unfreeze",
      "outputs": [],
      "stateMutability": "nonpayable",
      "type": "function"
    },
    {
      "inputs": [],
      "name": "unpause",
      "outputs": [],
      "stateMutability": "nonpayable",
      "type": "function"
    },
    {
      "inputs": [
        {
          "internalType": "address",
          "name": "_addr",
          "type": "address"
        }
      ],
      "name": "unwhitelistBetaDelegate",
      "outputs": [],
      "stateMutability": "nonpayable",
      "type": "function"
    },
    {
      "inputs": [
        {
          "internalType": "address",
          "name": "_addr",
          "type": "address"
        }
      ],
      "name": "whitelistBetaDelegate",
      "outputs": [],
      "stateMutability": "nonpayable",
      "type": "function"
    },
    {
      "inputs": [
        {
          "internalType": "address",
          "name": "_addr",
          "type": "address"
        }
      ],
      "name": "wipeFrozenAddress",
      "outputs": [],
      "stateMutability": "nonpayable",
      "type": "function"
    }
  ],
  "bytecode": {
    "object": "0x60806040526200000e6200001e565b620000186200016e565b6200057d565b600054610100900460ff16158080156200003f5750600054600160ff909116105b806200005b5750303b1580156200005b575060005460ff166001145b620000c45760405162461bcd60e51b815260206004820152602e60248201527f496e697469616c697a61626c653a20636f6e747261637420697320616c72656160448201526d191e481a5b9a5d1a585b1a5e995960921b60648201526084015b60405180910390fd5b6000805460ff191660011790558015620000e8576000805461ff0019166101001790555b60c980546001600160a01b031990811690915560cb805490911633179055620001106200018e565b6200011a6200027a565b62000124620002e0565b80156200016b576000805461ff0019169055604051600181527f7f26b83ff96e1f2b6a682f133852f6798a09c465da95921460cefb38474024989060200160405180910390a15b50565b6200017862000346565b62000182620003a2565b6200018c620003ea565b565b600054610100900460ff16620001ea5760405162461bcd60e51b815260206004820152602b602482015260008051602062002ec683398151915260448201526a6e697469616c697a696e6760a81b6064820152608401620000bb565b7fee552a4f357a6d8ecee15fed74927d873616e6da31fd672327acf0916acc174a6200023360408051808201909152600a81526914185e54185b081554d160b21b602082015290565b80516020918201206040516200025d93923091019283526020830191909152604082015260600190565b60408051601f19818403018152919052805160209091012060d055565b600054610100900460ff16620002d65760405162461bcd60e51b815260206004820152602b602482015260008051602062002ec683398151915260448201526a6e697469616c697a696e6760a81b6064820152608401620000bb565b6200018c62000447565b600054610100900460ff166200033c5760405162461bcd60e51b815260206004820152602b602482015260008051602062002ec683398151915260448201526a6e697469616c697a696e6760a81b6064820152608401620000bb565b6200018c620004ae565b6065546001600160a01b031633146200018c5760405162461bcd60e51b815260206004820181905260248201527f4f776e61626c653a2063616c6c6572206973206e6f7420746865206f776e65726044820152606401620000bb565b60335460ff16156200018c5760405162461bcd60e51b815260206004820152601060248201526f14185d5cd8589b194e881c185d5cd95960821b6044820152606401620000bb565b620003f4620003a2565b6033805460ff191660011790557f62e78cea01bee320cd4e420270b5ea74000d11b0c9f74754ebdbfc544b05a2586200042a3390565b6040516001600160a01b03909116815260200160405180910390a1565b600054610100900460ff16620004a35760405162461bcd60e51b815260206004820152602b602482015260008051602062002ec683398151915260448201526a6e697469616c697a696e6760a81b6064820152608401620000bb565b6200018c3362000516565b600054610100900460ff166200050a5760405162461bcd60e51b815260206004820152602b602482015260008051602062002ec683398151915260448201526a6e697469616c697a696e6760a81b6064820152608401620000bb565b6033805460ff19169055565b609780546001600160a01b03191690556200016b81606580546001600160a01b038381166001600160a01b0319831681179093556040519116919082907f8be0079c531659141344cd1fd0a4f28419497f9722a3daafe3b4186f6b6457e090600090a35050565b612939806200058d6000396000f3fe608060405234801561001057600080fd5b50600436106102955760003560e01c80638ceed9cb11610167578063c4f62fee116100ce578063e2f72f0311610087578063e2f72f03146105f4578063e306f77914610607578063e30c397814610610578063e583983614610621578063e7ba10121461064d578063f2fde38b1461066057600080fd5b8063c4f62fee1461056c578063d153b60c1461057f578063d505accf14610592578063d73dd623146105a5578063d990c618146105b8578063dd62ed3e146105cb57600080fd5b8063a457c2d711610120578063a457c2d7146104ec578063a7d87ed0146104ff578063a9059cbb1461052b578063ac69275c1461053e578063b35ae5be14610551578063b921e1631461055957600080fd5b80638ceed9cb1461046e5780638d1fdf2f146104815780638da5cb5b1461049457806395d89b41146104a557806397d60d56146104c657806398e52f9a146104d957600080fd5b806345c8b1a61161020b578063715018a6116101c4578063715018a6146103ff57806379ba5097146104075780637ecebe001461040f5780638129fc1c146104355780638456cb591461043d57806389f72c211461044557600080fd5b806345c8b1a61461038d57806352875bc3146103a05780635c975abb146103b35780635f0a5a68146103be57806366188463146103c657806370a08231146103d957600080fd5b806321ab11f71161025d57806321ab11f71461033357806323b872dd14610346578063313ce567146103595780633644e5151461036857806339509351146103705780633f4ba83a1461038357600080fd5b806306fdde031461029a578063095ea7b3146102b85780630a91b601146102db57806318160ddd146103065780631b67056114610320575b600080fd5b6102a2610673565b6040516102af91906122bf565b60405180910390f35b6102cb6102c636600461230e565b610697565b60405190151581526020016102af565b60c9546102ee906001600160a01b031681565b6040516001600160a01b0390911681526020016102af565b6805345cdf77eb68f44c545b6040519081526020016102af565b6102cb61032e3660046124e3565b610708565b6102cb610341366004612623565b6108a0565b6102cb6103543660046126ec565b6108f7565b604051600681526020016102af565b61031261098f565b6102cb61037e36600461230e565b610a05565b61038b610a65565b005b61038b61039b366004612728565b610a7f565b61038b6103ae366004612728565b610b2c565b60335460ff166102cb565b61038b610c2c565b6102cb6103d436600461230e565b610cf4565b6103126103e7366004612728565b6387a211a2600c908152600091909152602090205490565b61038b610d9f565b61038b610db1565b61031261041d366004612728565b6338377508600c908152600091909152602090205490565b61038b610e30565b61038b610f6e565b610312610453366004612728565b6001600160a01b0316600090815260cf602052604090205490565b61038b61047c366004612728565b610f86565b61038b61048f366004612728565b611060565b6065546001600160a01b03166102ee565b60408051808201909152600581526414165554d160da1b60208201526102a2565b61038b6104d4366004612728565b611111565b6102cb6104e7366004612743565b6111d9565b6102cb6104fa36600461230e565b611268565b6102cb61050d366004612728565b6001600160a01b0316600090815260ce602052604090205460ff1690565b6102cb61053936600461230e565b6112c9565b61038b61054c366004612728565b611358565b61038b611409565b6102cb610567366004612743565b61143f565b60cd546102ee906001600160a01b031681565b60cc546102ee906001600160a01b031681565b61038b6105a036600461275c565b6114c2565b6102cb6105b336600461230e565b6115de565b61038b6105c6366004612728565b611646565b6103126105d93660046127c6565b602052637f5e9f20600c908152600091909152603490205490565b61038b610602366004612728565b6116f3565b61031260d05481565b6097546001600160a01b03166102ee565b6102cb61062f366004612728565b6001600160a01b0316600090815260ca602052604090205460ff1690565b60cb546102ee906001600160a01b031681565b61038b61066e366004612728565b6117f0565b60408051808201909152600a81526914185e54185b081554d160b21b602082015290565b60006106a1611861565b6001600160a01b038316600090815260ca602052604090205460ff16806106d7575033600090815260ca602052604090205460ff165b156106f55760405163a8cab3d160e01b815260040160405180910390fd5b6106ff83836118a7565b90505b92915050565b60008751895114158061071d57508651895114155b8061072a57508551895114155b8061073757508451895114155b15610758576040516001621398b960e31b0319815260040160405180910390fd5b8351895114158061076b57508251895114155b8061077857508151895114155b15610799576040516001621398b960e31b0319815260040160405180910390fd5b60005b89518110156108905761087d8a82815181106107ba576107ba6127f9565b60200260200101518a83815181106107d4576107d46127f9565b60200260200101518a84815181106107ee576107ee6127f9565b60200260200101518a8581518110610808576108086127f9565b60200260200101518a8681518110610822576108226127f9565b60200260200101518a878151811061083c5761083c6127f9565b60200260200101518a8881518110610856576108566127f9565b60200260200101518a8981518110610870576108706127f9565b60200260200101516118e8565b508061088881612825565b91505061079c565b5060019998505050505050505050565b600086516041146108c4576040516341dd631d60e11b815260040160405180910390fd5b60208701516040880151606089015160001a6108e68383838c8c8c8c8c6118e8565b5060019a9950505050505050505050565b6000610901611861565b6001600160a01b0383166109285760405163d92e233d60e01b815260040160405180910390fd5b6001600160a01b038316600090815260ca602052604090205460ff168061095e575033600090815260ca602052604090205460ff165b1561097c5760405163a8cab3d160e01b815260040160405180910390fd5b610987848484611d0a565b949350505050565b604051600061099c610673565b80516020918201207f8b73c3c69bb8fe3d512ecc4cf759cc79239f7b179b0ffacaa9a75d522b39400f845290830152507fc89efdaa54c0f20c7adf612882df0950f5a951637e0307cdcb4c672f298b8bc6604082015246606082015230608082015260a0902090565b600082602052637f5e9f20600c52336000526034600c20805483810181811015610a375763f90670666000526004601cfd5b80835580600052505050602c5160601c336000805160206128e483398151915260206000a350600192915050565b610a6d611db6565b610a75611e10565b610a7d611e59565b565b60c9546001600160a01b03163314610aaa57604051630d228dd960e01b815260040160405180910390fd5b6001600160a01b038116600090815260ca602052604090205460ff16610ae357604051638208cbe560e01b815260040160405180910390fd5b6001600160a01b038116600081815260ca6020526040808220805460ff19169055517fc3776b472ebf54114339eec9e4dc924e7ce307a97f5c1ee72b6d474e6e5e8b7c9190a250565b60cb546001600160a01b03163381141580610b5257506065546001600160a01b03163314155b15610b70576040516302fbabfb60e51b815260040160405180910390fd5b6001600160a01b038216610b975760405163d92e233d60e01b815260040160405180910390fd5b806001600160a01b0316826001600160a01b031603610bc95760405163367558c360e01b815260040160405180910390fd5b816001600160a01b0316816001600160a01b03167f40d53b0b666e4424f29d55244e7e171a1dc332acc11d04ed4abd884629d8cc9760405160405180910390a35060cb80546001600160a01b0319166001600160a01b0392909216919091179055565b60cc546001600160a01b031633141580610c5157506065546001600160a01b03163314155b15610c6f57604051633d6f485960e01b815260040160405180910390fd5b60cc546001600160a01b0316610c985760405163eb2d969f60e01b815260040160405180910390fd5b60cc80546001600160a01b031981169091556001600160a01b0316610cbd60006117f0565b6040516001600160a01b038216907f24f4590b0077912a4db89e7430de7986175c27bede1b47ee039e3b421c2e798e90600090a250565b6000610cfe611861565b6001600160a01b038316600090815260ca602052604090205460ff1680610d34575033600090815260ca602052604090205460ff165b15610d525760405163a8cab3d160e01b815260040160405180910390fd5b6020839052637f5e9f20600c90815233600052603490205480831115610d8357610d7e33856000611eab565b610d95565b610d8d8484611268565b915050610702565b5060019392505050565b610da7611db6565b610a7d6000611eec565b60975433906001600160a01b03168114610e245760405162461bcd60e51b815260206004820152602960248201527f4f776e61626c6532537465703a2063616c6c6572206973206e6f7420746865206044820152683732bb9037bbb732b960b91b60648201526084015b60405180910390fd5b610e2d81611eec565b50565b600054610100900460ff1615808015610e505750600054600160ff909116105b80610e6a5750303b158015610e6a575060005460ff166001145b610ecd5760405162461bcd60e51b815260206004820152602e60248201527f496e697469616c697a61626c653a20636f6e747261637420697320616c72656160448201526d191e481a5b9a5d1a585b1a5e995960921b6064820152608401610e1b565b6000805460ff191660011790558015610ef0576000805461ff0019166101001790555b60c980546001600160a01b031990811690915560cb805490911633179055610f16611f05565b610f1e611f9b565b610f26611fca565b8015610e2d576000805461ff0019169055604051600181527f7f26b83ff96e1f2b6a682f133852f6798a09c465da95921460cefb38474024989060200160405180910390a150565b610f76611db6565b610f7e611861565b610a7d611ff9565b60c9546001600160a01b0316338114801590610fad57506065546001600160a01b03163314155b15610fcb57604051631f29269f60e01b815260040160405180910390fd5b816001600160a01b0316816001600160a01b031603610ffd5760405163367558c360e01b815260040160405180910390fd5b816001600160a01b0316816001600160a01b03167fd0c36a0ac0fe0d375386bd568fa2947a2dae7523a0a0cfdab20b7532a105bd1b60405160405180910390a35060c980546001600160a01b0319166001600160a01b0392909216919091179055565b60c9546001600160a01b0316331461108b57604051630d228dd960e01b815260040160405180910390fd5b6001600160a01b038116600090815260ca602052604090205460ff16156110c55760405163a8cab3d160e01b815260040160405180910390fd5b6001600160a01b038116600081815260ca6020526040808220805460ff19166001179055517f90811a8edd3b3c17eeaefffc17f639cc69145d41a359c9843994dc25382036909190a250565b60cd546001600160a01b031633811480159061113857506065546001600160a01b03163314155b1561115657604051637729f3ab60e11b815260040160405180910390fd5b816001600160a01b0316816001600160a01b0316036111885760405163367558c360e01b815260040160405180910390fd5b60cd80546001600160a01b0319166001600160a01b0384811691821790925560405190918316907f54e20b07412504aee4d17519747ae2f01b9924f7f30059793fe5576c4220a0c390600090a35050565b60cb546000906001600160a01b03163314611207576040516371af36c560e01b815260040160405180910390fd5b60cb5461121d906001600160a01b031683612036565b60cb546040518381526001600160a01b03909116907f1b7e18241beced0d7f41fbab1ea8ed468732edbcb74ec4420151654ca71c8a63906020015b60405180910390a2506001919050565b600082602052637f5e9f20600c52336000526034600c2080548381101561129757638301ab386000526004601cfd5b8381039050808255806000525050602c5160601c336000805160206128e483398151915260206000a350600192915050565b60006112d3611861565b6001600160a01b0383166112fa5760405163d92e233d60e01b815260040160405180910390fd5b6001600160a01b038316600090815260ca602052604090205460ff1680611330575033600090815260ca602052604090205460ff165b1561134e5760405163a8cab3d160e01b815260040160405180910390fd5b6106ff838361209b565b60cd546001600160a01b0316331461138357604051631df571df60e21b815260040160405180910390fd5b6001600160a01b038116600090815260ce602052604090205460ff16156113bd5760405163faac6f7b60e01b815260040160405180910390fd5b6001600160a01b038116600081815260ce6020526040808220805460ff19166001179055517f8a22e0d8ecb02260464e9a55b7d82b17482735ae1f765de59dee573dfec5b36d9190a250565b611411611db6565b610a7d306114276065546001600160a01b031690565b6387a211a2600c908152306000526020902054612104565b60cb546000906001600160a01b0316331461146d576040516371af36c560e01b815260040160405180910390fd5b60cb54611483906001600160a01b03168361216d565b60cb546040518381526001600160a01b03909116907ff5c174d57843e57fea3c649fdde37f015ef08750759cbee88060390566a9879790602001611258565b60006114cc61098f565b9050604051854211156114e757631a15a3cc6000526004601cfd5b8860601b60601c98508760601b60601c97506338377508600c52886000526020600c2080546001810182557f6e71edae12b1b97f4d1f60370fef10105fa2faae0126114a169c64845d6126c983528a602084015289604084015288606084015280608084015250508560a08201526119016000528160205260c081206040526042601e206000528460ff1660205283604052826060526020806080600060015afa50883d511461159f5763ddafbaef6000526004601cfd5b6303faf4f960a51b88176040526034602c2087905587896000805160206128e4833981519152602060608501a360405250506000606052505050505050565b60006115e8611861565b6001600160a01b038316600090815260ca602052604090205460ff168061161e575033600090815260ca602052604090205460ff165b1561163c5760405163a8cab3d160e01b815260040160405180910390fd5b6106ff8383610a05565b60cd546001600160a01b0316331461167157604051631df571df60e21b815260040160405180910390fd5b6001600160a01b038116600090815260ce602052604090205460ff166116aa57604051630b094f2760e31b815260040160405180910390fd5b6001600160a01b038116600081815260ce6020526040808220805460ff19169055517f12acb305bec2ecc1e4568decc9c8e0423749ceb6ae249eaef4ef375ec174a49c9190a250565b60c9546001600160a01b0316331461171e57604051630d228dd960e01b815260040160405180910390fd5b6001600160a01b038116600090815260ca602052604090205460ff1661175757604051638208cbe560e01b815260040160405180910390fd5b6387a211a2600c908152600082905260209020546117758282612036565b6040516001600160a01b038316907ffc5960f1c5a5d2b60f031bf534af053b1bf7d9881989afaeb8b1d164db23aede90600090a2816001600160a01b03167f1b7e18241beced0d7f41fbab1ea8ed468732edbcb74ec4420151654ca71c8a63826040516117e491815260200190565b60405180910390a25050565b6117f8611db6565b609780546001600160a01b0383166001600160a01b031990911681179091556118296065546001600160a01b031690565b6001600160a01b03167f38d16b8cac22d99fc7c124b9cd0de2d3fa1faef420bfe791d8c362d765e2270060405160405180910390a350565b60335460ff1615610a7d5760405162461bcd60e51b815260206004820152601060248201526f14185d5cd8589b194e881c185d5cd95960821b6044820152606401610e1b565b600082602052637f5e9f20600c5233600052816034600c205581600052602c5160601c336000805160206128e483398151915260206000a350600192915050565b60006118f2611861565b33600090815260ce602052604090205460ff16611922576040516383da350360e01b815260040160405180910390fd5b8415801561192e575083155b1561194c5760405163a97c1f7760e01b815260040160405180910390fd5b8143111561196d576040516338e5e54b60e21b815260040160405180910390fd5b7f7fffffffffffffffffffffffffffffff5d576e7357a4501ddfe92f46681b20a08811156119ae576040516302354df760e01b815260040160405180910390fd5b8660ff16601b141580156119c657508660ff16601c14155b156119e4576040516302354df760e01b815260040160405180910390fd5b604080517f4094ee93b87436e01a39cd5f9d33833f8e427f8830eacb6832f06f8536b54c0c60208201526001600160a01b03881691810191909152606081018690526080810185905260a0810184905260c0810183905260009060e001604051602081830303815290604052805190602001209050600060405180604001604052806002815260200161190160f01b81525060d05483604051602001611a8c9392919061283e565b60408051601f198184030181528282528051602091820120600080855291840180845281905260ff8d1692840192909252606083018e9052608083018d90529092509060019060a0016020604051602081039080840390855afa158015611af7573d6000803e3d6000fd5b5050604051601f1901519150506001600160a01b038116611b2b5760405163480e9a4960e01b815260040160405180910390fd5b6001600160a01b038916611b525760405163d92e233d60e01b815260040160405180910390fd5b6001600160a01b038916600090815260ca602052604090205460ff1680611b9157506001600160a01b038116600090815260ca602052604090205460ff165b80611bab575033600090815260ca602052604090205460ff165b15611bc95760405163a8cab3d160e01b815260040160405180910390fd5b6387a211a2600c90815260008290526020902054611be789896121da565b1115611c065760405163356680b760e01b815260040160405180910390fd5b6001600160a01b038116600090815260cf60205260409020548614611c3e576040516307dabc2f60e01b815260040160405180910390fd5b6001600160a01b038116600090815260cf6020526040902054611c629060016121da565b6001600160a01b038216600090815260cf60205260409020558615611c9c57611c8c813389612104565b611c97818a8a612104565b611ca7565b611ca7818a8a612104565b60408051898152602081018890529081018890526001600160a01b03808b1691908316907fe526c2818be85606ab8e0ea3f317c198ef15baabbb4430bcf2d836eed3c7769b9060600160405180910390a35060019b9a5050505050505050505050565b60008360601b33602052637f5e9f208117600c526034600c2080546000198114611d4a5780851115611d44576313be252b6000526004601cfd5b84810382555b50506387a211a28117600c526020600c20805480851115611d735763f4d678b86000526004601cfd5b84810382555050836000526020600c208381540181555082602052600c5160601c8160601c6000805160206128c4833981519152602080a3505060019392505050565b6065546001600160a01b03163314610a7d5760405162461bcd60e51b815260206004820181905260248201527f4f776e61626c653a2063616c6c6572206973206e6f7420746865206f776e65726044820152606401610e1b565b60335460ff16610a7d5760405162461bcd60e51b815260206004820152601460248201527314185d5cd8589b194e881b9bdd081c185d5cd95960621b6044820152606401610e1b565b611e61611e10565b6033805460ff191690557f5db9ee0a495bf2e6ff9c91a7834c1ba4fdd244a5e8aa4e537bd38aeae4b073aa335b6040516001600160a01b03909116815260200160405180910390a1565b8260601b82602052637f5e9f208117600c52816034600c205581600052602c5160601c8160601c6000805160206128e483398151915260206000a350505050565b609780546001600160a01b0319169055610e2d816121e6565b600054610100900460ff16611f2c5760405162461bcd60e51b8152600401610e1b90612865565b7fee552a4f357a6d8ecee15fed74927d873616e6da31fd672327acf0916acc174a611f55610673565b8051602091820120604051611f7e93923091019283526020830191909152604082015260600190565b60408051601f19818403018152919052805160209091012060d055565b600054610100900460ff16611fc25760405162461bcd60e51b8152600401610e1b90612865565b610a7d612238565b600054610100900460ff16611ff15760405162461bcd60e51b8152600401610e1b90612865565b610a7d612268565b612001611861565b6033805460ff191660011790557f62e78cea01bee320cd4e420270b5ea74000d11b0c9f74754ebdbfc544b05a258611e8e3390565b6387a211a2600c52816000526020600c2080548083111561205f5763f4d678b86000526004601cfd5b82900390556805345cdf77eb68f44c8054829003905560008181526001600160a01b0383166000805160206128c4833981519152602083a35050565b60006387a211a2600c52336000526020600c208054808411156120c65763f4d678b86000526004601cfd5b83810382555050826000526020600c208281540181555081602052600c5160601c336000805160206128c4833981519152602080a350600192915050565b8260601b6387a211a28117600c526020600c2080548084111561212f5763f4d678b86000526004601cfd5b83810382555050826000526020600c208281540181555081602052600c5160601c8160601c6000805160206128c4833981519152602080a350505050565b6805345cdf77eb68f44c54818101818110156121915763e5cfe9576000526004601cfd5b806805345cdf77eb68f44c5550506387a211a2600c52816000526020600c208181540181555080602052600c5160601c60006000805160206128c4833981519152602080a35050565b60006106ff82846128b0565b606580546001600160a01b038381166001600160a01b0319831681179093556040519116919082907f8be0079c531659141344cd1fd0a4f28419497f9722a3daafe3b4186f6b6457e090600090a35050565b600054610100900460ff1661225f5760405162461bcd60e51b8152600401610e1b90612865565b610a7d33611eec565b600054610100900460ff1661228f5760405162461bcd60e51b8152600401610e1b90612865565b6033805460ff19169055565b60005b838110156122b657818101518382015260200161229e565b50506000910152565b60208152600082518060208401526122de81604085016020870161229b565b601f01601f19169190910160400192915050565b80356001600160a01b038116811461230957600080fd5b919050565b6000806040838503121561232157600080fd5b61232a836122f2565b946020939093013593505050565b634e487b7160e01b600052604160045260246000fd5b604051601f8201601f1916810167ffffffffffffffff8111828210171561237757612377612338565b604052919050565b600067ffffffffffffffff82111561239957612399612338565b5060051b60200190565b600082601f8301126123b457600080fd5b813560206123c96123c48361237f565b61234e565b82815260059290921b840181019181810190868411156123e857600080fd5b8286015b8481101561240357803583529183019183016123ec565b509695505050505050565b803560ff8116811461230957600080fd5b600082601f83011261243057600080fd5b813560206124406123c48361237f565b82815260059290921b8401810191818101908684111561245f57600080fd5b8286015b84811015612403576124748161240e565b8352918301918301612463565b600082601f83011261249257600080fd5b813560206124a26123c48361237f565b82815260059290921b840181019181810190868411156124c157600080fd5b8286015b84811015612403576124d6816122f2565b83529183019183016124c5565b600080600080600080600080610100898b03121561250057600080fd5b883567ffffffffffffffff8082111561251857600080fd5b6125248c838d016123a3565b995060208b013591508082111561253a57600080fd5b6125468c838d016123a3565b985060408b013591508082111561255c57600080fd5b6125688c838d0161241f565b975060608b013591508082111561257e57600080fd5b61258a8c838d01612481565b965060808b01359150808211156125a057600080fd5b6125ac8c838d016123a3565b955060a08b01359150808211156125c257600080fd5b6125ce8c838d016123a3565b945060c08b01359150808211156125e457600080fd5b6125f08c838d016123a3565b935060e08b013591508082111561260657600080fd5b506126138b828c016123a3565b9150509295985092959890939650565b60008060008060008060c0878903121561263c57600080fd5b863567ffffffffffffffff8082111561265457600080fd5b818901915089601f83011261266857600080fd5b813560208282111561267c5761267c612338565b61268e601f8301601f1916820161234e565b92508183528b818386010111156126a457600080fd5b818185018285013760008183850101528299506126c2818c016122f2565b999c999b505050506040880135976060810135976080820135975060a09091013595509350505050565b60008060006060848603121561270157600080fd5b61270a846122f2565b9250612718602085016122f2565b9150604084013590509250925092565b60006020828403121561273a57600080fd5b6106ff826122f2565b60006020828403121561275557600080fd5b5035919050565b600080600080600080600060e0888a03121561277757600080fd5b612780886122f2565b965061278e602089016122f2565b955060408801359450606088013593506127aa6080890161240e565b925060a0880135915060c0880135905092959891949750929550565b600080604083850312156127d957600080fd5b6127e2836122f2565b91506127f0602084016122f2565b90509250929050565b634e487b7160e01b600052603260045260246000fd5b634e487b7160e01b600052601160045260246000fd5b6000600182016128375761283761280f565b5060010190565b6000845161285081846020890161229b565b91909101928352506020820152604001919050565b6020808252602b908201527f496e697469616c697a61626c653a20636f6e7472616374206973206e6f74206960408201526a6e697469616c697a696e6760a81b606082015260800190565b808201808211156107025761070261280f56feddf252ad1be2c89b69c2b068fc378daa952ba7f163c4a11628f55a4df523b3ef8c5be1e5ebec7d5bd14f71427d1e84f3dd0314c0f7b2291e5b200ac8c7c3b925a2646970667358221220348b90a9b91031ba58b4a77e6873e2d3e3c61dba833232a9f1c96e7bc035a4a864736f6c63430008140033496e697469616c697a61626c653a20636f6e7472616374206973206e6f742069",
    "linkReferences": {}
  },
  "methodIdentifiers": {
    "DOMAIN_SEPARATOR()": "3644e515",
    "EIP712_DOMAIN_HASH()": "e306f779",
    "acceptOwnership()": "79ba5097",
    "allowance(address,address)": "dd62ed3e",
    "approve(address,uint256)": "095ea7b3",
    "assetProtectionRole()": "0a91b601",
    "balanceOf(address)": "70a08231",
    "betaDelegateWhitelister()": "c4f62fee",
    "betaDelegatedTransfer(bytes,address,uint256,uint256,uint256,uint256)": "21ab11f7",
    "betaDelegatedTransferBatch(bytes32[],bytes32[],uint8[],address[],uint256[],uint256[],uint256[],uint256[])": "1b670561",
    "decimals()": "313ce567",
    "decreaseAllowance(address,uint256)": "a457c2d7",
    "decreaseApproval(address,uint256)": "66188463",
    "decreaseSupply(uint256)": "98e52f9a",
    "disregardProposedOwner()": "5f0a5a68",
    "freeze(address)": "8d1fdf2f",
    "increaseAllowance(address,uint256)": "39509351",
    "increaseApproval(address,uint256)": "d73dd623",
    "increaseSupply(uint256)": "b921e163",
    "initialize()": "8129fc1c",
    "isFrozen(address)": "e5839836",
    "isWhitelistedBetaDelegate(address)": "a7d87ed0",
    "name()": "06fdde03",
    "nextSeqOf(address)": "89f72c21",
    "nonces(address)": "7ecebe00",
    "owner()": "8da5cb5b",
    "pause()": "8456cb59",
    "paused()": "5c975abb",
    "pendingOwner()": "e30c3978",
    "permit(address,address,uint256,uint256,uint8,bytes32,bytes32)": "d505accf",
    "proposedOwner()": "d153b60c",
    "reclaimPYUSD()": "b35ae5be",
    "renounceOwnership()": "715018a6",
    "setAssetProtectionRole(address)": "8ceed9cb",
    "setBetaDelegateWhitelister(address)": "97d60d56",
    "setSupplyController(address)": "52875bc3",
    "supplyController()": "e7ba1012",
    "symbol()": "95d89b41",
    "totalSupply()": "18160ddd",
    "transfer(address,uint256)": "a9059cbb",
    "transferFrom(address,address,uint256)": "23b872dd",
    "transferOwnership(address)": "f2fde38b",
    "unfreeze(address)": "45c8b1a6",
    "unpause()": "3f4ba83a",
    "unwhitelistBetaDelegate(address)": "d990c618",
    "whitelistBetaDelegate(address)": "ac69275c",
    "wipeFrozenAddress(address)": "e2f72f03"
  },
  "id": 12
}